:100000000C9457000C940F110C940F110C940F11B9
:100010000C940F110C940F110C940F110C940F11E0
:100020000C94E8100C940F110C940F110C940F11F8
:100030000C940F110C940F110C940F110C940F11C0
:100040000C940F110C940F110C940F110C940F11B0
:100050000C940F110C940F110C940F110C940F11A0
:100060000C94080D0C940F110C94670E0C943B0E1D
:100070000C940F110C94ED100C940F110C940F11A3
:100080000C940F110C940F110C94930E0C940F11EF
:1000900060006032806032606800223A6068608C84
:1000A00080608C608E002270608E609380001124CE
:1000B0001FBECFEFCDBFDFE7DEBFE0E9F0E040E0FD
:1000C00017C0B591A59135912591059107FD0CC0FB
:1000D00095918591EF01F92FE82F05900D92A217C8
:1000E000B307D9F7FE0104C01D92A217B307E1F7C9
:1000F000ED3AF40731F70E94570B0C948110F894F5
:02010000FFCF2F
:1001020068076C094C836A9074A07AC00080688882
:0601120000846C820081F4
:1001180025302E3266000A537472656E6774683A29
:040128000025250089
:10012C00494E4600696E66004E414E006E616E008F
:07013C00286E756C6C2900B0
:06014300286E696C290022
:10014A00A6E2B0E0EBEAF0E00C947C0F8F8F98A364
:10015A006E8B7F8B288FFB010190F081E02DE98760
:10016A00FA87FB0102811381248135812A8B3B8B1B
:10017A008085918589A39AA30680F781E02DE9837A
:10018A00FA83FA0180809180A280B38020E030E077
:10019A00A901C501B4010E94F21087FF06C0B7FA8F
:1001AA00B094B7F8B0948DE204C0F985F2FF69C340
:1001BA008BE2E981FA8180832A893B8921503109BE
:1001CA002B833C8341E050E0488B598B06C08A89D7
:1001DA009B898B839C83188A198AD501C401BF77AE
:1001EA000097E0E8AE07EFE7BE07F1F4F88D2F2F8E
:1001FA00FF0F330B2154310989819A814889598922
:10020A00840F951F2A31310520F44CE251E060E059
:10021A0003C040E351E060E00E94361089819A8170
:10022A003C01E0E88E2E1AC30197A048BF47F0F0C0
:10023A00488D242F440F330B2154310989819A8127
:10024A00E889F9898E0F9F1F2A31310520F444E38A
:10025A0051E060E003C048E351E060E00E943610DC
:10026A0029813A81390140E8842EF8C220E030E041
:10027A00A901C501B4010E94F210C12CD12C20E8B9
:10028A00E22E2FE3F22E212C312C882309F487C089
:10029A008D829E82AF82B88620E030E040E251E44F
:1002AA00C701B6010E9408112B013C01D501C40106
:1002BA0084199509A609B709B7FF07C0B095A09593
:1002CA00909581959F4FAF4FBF4F0297A105B105FA
:1002DA0034F45FEF251A350A73016201DDCFA501F7
:1002EA009401C301B2010E94F21087FDF2CF8D8101
:1002FA009E81AF81B8858C199D09AE09BF09019607
:10030A00A11DB11D0397A105B10508F446C01D82C0
:10031A001E82A5019401C701B6010E94F7101816A2
:10032A00F4F584ED28168EEF3806E4F4ED81FE81AB
:10033A00EF2BC1F420E030E040E85AE5C501B401F2
:10034A000E9408114B015C0120E030E040E85AE5C8
:10035A00C701B6010E9408116B017C0121E030E05F
:10036A002D833E8320E030E040E251E4C701B6012C
:10037A000E9404116B017C0131E0231A3108D50176
:10038A00C4018C199D09AE09BF090196A11DB11DB1
:10039A000397A105B10508F0BCCF46015701488D66
:1003AA00042E000C550B488F598FCA010E949F10CA
:1003BA008A8F17FD03C00D831E8304C086E090E078
:1003CA008D839E839A8D973639F4012B41F4E1E0AF
:1003DA00F0E0ED83FE8303C04A8D4F8710C02CEFF7
:1003EA0022162FEF32060CF451C22D813E812216BD
:1003FA0033060CF04BC237FE4CC256E65F878D813E
:10040A009E8101968D839E839F85963699F437FE49
:10041A0008C0C12CD12C90E8E92E9FE3F92E212C9B
:10042A00312CEA8DE73631F02D813E81220D331DC4
:10043A002D833E831C2DDDA2EBA20F2D8B869C867D
:10044A00AD86BE861C8A1D8A8C899D89ED81FE81B6
:10045A008E179F07DCF5212F3DA14BA1502F6B85ED
:10046A007C858D859E850E9404110E944B072B0175
:10047A003C010E94CA106B8FA3019201612F7DA1DA
:10048A008BA1902F0E9408112B853C854D855E8596
:10049A000E94C3109B01AC0150582B873C874D87A3
:1004AA005E8720E030E040E251E4612F7DA18BA11C
:1004BA00902F0E940411162F7DA38BA3092F4C891C
:1004CA005D894F5F5F4F4C8B5D8BBECF20E030E084
:1004DA0040EA50E4612F7DA18BA1902F0E94081160
:1004EA002B013C019B01AC016B857C858D859E852A
:1004FA000E94F21087FD0DC0A30192016B857C85D5
:10050A008D859E850E94F210811106C0FB8DF0FD3B
:10051A0003C0412C512C3201A5019401C301B2013F
:10052A000E94C4104B015C0120E030E040E251E43B
:10053A00C701B6010E9408116B877C8B182F092FFF
:10054A009B01482F592FC501B4010E94F71087FD5E
:10055A0011C02FEF221A320A3F85363679F44D81BF
:10056A005E814F5F5F4F4D835E835B855DA38C89A0
:10057A008EA30BC0CB86DC8A1E2D0F2D9F85953648
:10058A0031F0EB85EDA3FC89FEA3710106C02B8532
:10059A002DA33C893EA3E12CF12C48885988C12C13
:1005AA00D12C1C8A1D8A1B861C8649855A85407156
:1005BA0055274BA35CA32B853C854D815E8124176F
:1005CA00350734F08C899D89892B09F497C0A3C01B
:1005DA003201EE89FF89808591850597481659066B
:1005EA0088F72DA13EA1412F502FC501B4010E94C9
:1005FA0004110E944B076B8F7C8F8D8F9E8F0E94F8
:10060A00CA106A30710514F069E070E08BA19CA1F0
:10061A00892B69F46115710551F49A8D973639F46D
:10062A00F7FE05C03601EFEF6E1A7E0A3BC02C8931
:10063A003D89232BA1F4F7FE12C03FEF431A530A58
:10064A00E981FA81E60DF71D4EE240838B819C8198
:10065A0001978B839C83E1E0F0E0EC8BFD8BE981D1
:10066A00FA81E40DF51D36016114710431F020E3BD
:10067A00219331E0631A7108F7CFC601840D951DE5
:10068A002B813C812C193D092C014FEF441A540A45
:10069A00E981FA81E80FF91F605D6083C90101975A
:1006AA008B839C832B8D3C8D4D8D5E8D6DA17EA1A0
:1006BA00812F902F0E940811A50194010E94C31056
:1006CA004B015C01B7FAB094B7F8B09420E030E07F
:1006DA0040E251E46DA17EA1812F902F0E94041166
:1006EA006DA37EA3182F092F91E0E91AF108EB8573
:1006FA00FC853196EB87FC8763015DCFF985F4FFB2
:10070A000AC0E981FA81E40DF51D8EE28083920127
:10071A002F5F3F4F290149815A81440D551D4D8351
:10072A005E83FA011082FF85F53609F061C0E9811E
:10073A00FA8129A13AA1E20FF31F3197108237FEFD
:10074A0006C031942194310801E010E002C000E0B3
:10075A0010E0E9A1FAA1319749815A81E40FF51F06
:10076A0022E030E08AE0E82EF12CCF0149815A815B
:10077A00841B950B2114310479F0C101B7010E9441
:10078A00DB0F805D82931B01215031098B819C8193
:10079A0001978B839C83E9CF1216130674F3FC012D
:1007AA003197E40FF51F012B11F42BE201C02DE262
:1007BA0020830297E981FA81E80FF91F288D398D84
:1007CA00215431092A31310510F025E601C025E40A
:1007DA0020832B813C81225031092B833C8348168C
:1007EA00590634F4AF0160E88D819E810E9436106B
:1007FA0049815A813A0180E8882E998591FF2EC055
:10080A0090FD2CC0EB81FC811E161F063CF5882D3D
:10081A00B3010E94C50F29813A81820F931F9C015F
:10082A0049815A81241B350BE889F9892E173F071C
:10083A004CF0FC012081EB81FC81E80FF91F208339
:10084A000197EDCF4B815C8160E370E089819A81E9
:10085A008E0F9F1F0E9496101A8A1B8A882DB30139
:10086A000E94C50FE984FA840A891B899C01682DB4
:10087A00A3018F8D98A10E94790AA696E2E10C94B1
:10088A00AD0F598553FFA3CC80E293CC35E63F8761
:08089A00D1CD46E64F87CECD1B
:1008A2002F923F924F926F927F928F929F92AF922E
:1008B200BF92CF92DF92EF92FF920F931F93CF934B
:1008C200DF93CDB7DEB72E97CDBFDEBF4C016B01F4
:1008D200380119821A828FEF9FEF8B839C831D82CE
:1008E2001E824F83588729873A87A12CB12CD601C3
:1008F2002D913D914C912A0D3B1D411DB7FC4A950E
:10090200F901849147FD8081811116C0F60120838F
:1009120031834283F901849147FD8081853209F058
:100922000FC21901442EFFEF2F1A3F0A4F0AD601B8
:100932002D923D924C921BC0853241F3B401082E98
:10094200000C990B0E940E0B4FEFA41AB40ACFCFE2
:100952002C32DCF02D3229F529813A81216029835C
:100962003A830196A11DF60180839183A283F60149
:1009720080819181A281FC012491A7FD20812B32EB
:1009820039F729813A812460EACF203221F4298182
:100992003A812860E4CF233251F429813A812061DF
:1009A200DECF203321F429813A812260D8CFB701EA
:1009B200C6010E94570C8D839E8397FF0BC029812D
:1009C2003A81F1E02F2729833A8391958195910904
:1009D2008D839E8389819A8180FF03C08D7F898365
:1009E2009A83F60180819181A281FC012491A7FD65
:1009F20020812E3261F40196A11DF601808391833C
:100A0200A283B701C6010E94570C8B839C83C60147
:100A12000E949009182FD6012C9111968C91119752
:100A220012969C91E22FF82F849197FD8081082ED7
:100A3200000C990B0E949F10893609F44AC084F475
:100A4200833609F419C134F4853209F445C181367B
:100A5200E1F050C18436E9F188360CF4E9C04AC1AC
:100A6200803709F4B0C03CF48E3609F4D6C08F3614
:100A720009F46DC03FC1853709F44AC0883709F4CB
:100A820085C0833709F036C10DC1612F70E0A7011F
:100A9200CE010B960E942A0F892B09F448C1F60158
:100AA20080819181A2819C014A2F2F5F3F4F4F4F3E
:100AB200208331834283FC012491A7FD2081AE0172
:100AC200455F5F4FBE016F5F7F4FC4010E94000010
:100AD2002BC1612F70E0970141E050E0CE010B96EF
:100AE2000E940000892B09F422C1F60180819181C4
:100AF200A2810196A11D80839183A283AE01455FED
:100B02005F4FBE016F5F7F4FC4010E9400000CC1A6
:100B1200612F70E0970140E050E0CE010B960E94F9
:100B22000000892B09F403C1F60180819181A28121
:100B32000196A11D80839183A283AE01455F5F4F21
:100B4200BE016F5F7F4FC4010E940000EDC0612FA4
:100B520070E0970140E050E0CE010B960E94000049
:100B6200892B09F4E4C0F60180819181A28101966A
:100B7200A11D80839183A283AE01455F5F4FBE01B9
:100B82006F5F7F4FC4010E940000CEC0612F70E0F2
:100B9200970140E050E0CE010B960E940000892BA5
:100BA20009F4C5C0F60180819181A2819C014A2F7E
:100BB2002F5F3F4F4F4F208331834283FC012491AB
:100BC200A7FD208120C0970140E050E060EF70E077
:100BD200CE010B960E940000892B09F4A8C0F601F1
:100BE20080819181A2810196A11D80839183A2833C
:100BF2008B859C85892B31F400E010E023E431E001
:100C020040E08CC028E7AE01455F5F4FBE016F5FD9
:100C12007F4FC4010E94000087C0A501460D571DE9
:100C2200612F70E09701CE010B960E9400007FC0F9
:100C3200612F70E0A701CE010B960E942A0F892B2B
:100C420009F475C0F60180819181A2819C014A2F2D
:100C52002F5F3F4F4F4F208331834283FC0124910A
:100C6200A7FD2081AE01455F5F4FBE016F5F7F4FE1
:100C7200C4010E94A50058C0103809F058C0F601FE
:100C820080819181A2810196A11D80839183A2839B
:100C9200D701ED91FC911197CF0102968D939C9310
:100CA200808126C0103809F042C0F601808191810E
:100CB200A2810196A11D80839183A283D701ED9128
:100CC200FC911197CF0103968D939C9320813181E2
:100CD200428100E010E022C0103849F5F60120817F
:100CE200318142812F5F3F4F4F4F208331834283B7
:100CF2008B870EC085E28B87F60120823182428289
:100D020019821A821D821E828FEF9FEF8B839C8332
:100D12009E01255F3F4F40E801E010E0BE016F5F9A
:100D22007F4FC4010E941A0C8A0D9B1D0AC0F60156
:100D320080819181A2810196A11D80839183A283EA
:100D4200C5012E96CDBFDEBFDF91CF911F910F91CE
:100D5200FF90EF90DF90CF90BF90AF909F908F90D9
:0C0D62007F906F904F903F902F9008956D
:100D6E0080916E6090916F609C01329522952F70EC
:100D7E0023273F702327209392604FE0489F9001D6
:100D8E00499F300D112436952795329522952F7057
:100D9E0023273F702327A9E1B4E00E9427109695E0
:100DAE008795809391600E946910909191609F3019
:100DBE00B9F04091926080E0E82FF0E0E85AFF49E8
:100DCE00E081F0E09F01220F331FE20FF31FEE5F71
:100DDE00FF491082118242838F5F981768F732C0E5
:100DEE008091746090917560A0917660B0917760FB
:100DFE000196A11DB11D8F309105A105B10550F1D0
:100E0E0010927460109275601092766010927760F6
:100E1E00809190608F5F873018F48093906022C02D
:100E2E00109290601FC0ED91F0E0CF01880F991FD6
:100E3E00E80FF91FEE5FFF49608351834283A217CB
:100E4E00B30789F762E070E680E840E150E00E9467
:100E5E00AB0D08958093746090937560A093766047
:100E6E00B09377608091906090E0FC01EE0FFF1FD1
:100E7E00E80FF91FEE5CFF49608151814281A8E5C0
:080E8E00B0E628E630E6CFCF04
:100E96004F925F926F927F928F929F92AF92BF9284
:100EA600CF92DF92EF92FF92CF93DF93CDB7DEB76B
:100EB6002897CDBFDEBF6B017C01DC01CB0147E18A
:100EC600B695A795979587954A95D1F799278F5700
:100ED6009109873191059CF597FD36C088248A943F
:100EE600982C3FE7A32EB12C04C0B594A7949794F1
:100EF60087948A95D2F7D501C4018C219D21AE2114
:100F0600BF21892B8A2B8B2BD1F020E030E040E8E3
:100F16005BE7C701B6010E94C4106D837E838F8391
:100F26009887F7FE04C0C80CD91CEA1CFB1C8094E9
:100F36009094A094B094C820D920EA20FB205C2D80
:100F46004D2D3E2D2F2D21C020E030E040E85BE7FF
:100F5600C701B6010E94C41069837A838B839C8380
:100F6600F7FE0FC0D701C601880F991FAA1FBB1F26
:100F7600892B8A2B8B2B19F350E040E030E82FEBBE
:100F860004C050E040E030E020E0652F742F832F4E
:100F9600922F2896CDBFDEBFDF91CF91FF90EF90C5
:100FA600DF90CF90BF90AF909F908F907F906F9083
:060FB6005F904F900895CA
:100FBC00CF93DF9380E094E0FC011082C0E4D4E096
:100FCC001882A0E6B4E020E92C9340EA54E0FA0140
:100FDC001082FC0114821C8220E114962C9314972D
:100FEC00FA011482FC01108A118A128A138A148A5B
:100FFC00158A168A178A188A198A1A8A1B8A1C8AD1
:10100C001D8A1E8A1F8A50961C92509751961C92CC
:10101C00519752961C92529753961C9253975496F2
:10102C001C92549755961C92559756961C9256970F
:10103C0057961C92FA01108A118A128A84E0838BCB
:10104C00148A158A168A178AE0EEF5E0118210824E
:10105C001582178210861186168283E0828383E1C3
:10106C0091E1809382609093836084E191E180931D
:10107C0080609093816085E191E180937E60909394
:10108C007F6086E191E180937C6090937D60DF913D
:04109C00CF91089553
:1010A00010C00E94B51058F00E94AE1040F029F414
:1010B0005F3F29F00C94DD1051110C94BD100C947D
:1010C0000C110E94080F68F39923B1F3552391F393
:1010D000951B550BBB27AA2762177307840738F0A7
:1010E0009F5F5F4F220F331F441FAA1FA9F335D004
:1010F0000E2E3AF0E0E832D091505040E695001CB8
:10110000CAF72BD0FE2F29D0660F771F881FBB1F71
:10111000261737074807AB07B0E809F0BB0B802D4F
:10112000BF01FF2793585F4F3AF09E3F510578F07B
:101130000C94DD100C94BD105F3FE4F3983ED4F3A3
:10114000869577956795B795F7959F5FC9F7880F4F
:10115000911D9695879597F90895E1E0660F771FA1
:10116000881FBB1F621773078407BA0720F0621B32
:0E117000730B840BBA0BEE1F88F7E095089501
:10117E000FC00E94AE1038F00E94B51020F09523DB
:10118E0011F00C94DD100C940C1111240C94BD1064
:10119E000E94080F70F3959FC1F3950F50E0551FF5
:1011AE00629FF001729FBB27F00DB11D639FAA27AE
:1011BE00F00DB11DAA1F649F6627B00DA11D661FFD
:1011CE00829F2227B00DA11D621F739FB00DA11D1E
:1011DE00621F839FA00D611D221F749F3327A00DD8
:1011EE00611D231F849F600D211D822F762F6A2F74
:1011FE0011249F5750409AF0F1F088234AF0EE0FD9
:10120E00FF1FBB1F661F771F881F91505040A9F705
:10121E009E3F510580F00C94DD100C94BD105F3F85
:10122E00E4F3983ED4F3869577956795B795F79541
:10123E00E7959F5FC1F7FE2B880F911D96958795B9
:04124E0097F908956F
:1012520011C00E94AE1038F00E94B51020F039F48F
:101262009F3F19F426F40C940C110EF4E095E7FB61
:101272000C94DD10E92F0E94080F58F3BA17620789
:1012820073078407950720F079F4A6F50C94BC1037
:101292000EF4E0950B2EBA2FA02D0B01B90190018F
:1012A2000C01CA01A0011124FF27591B99F0593FD3
:1012B20050F4503E68F11A16F040A22F232F342F1B
:1012C2004427585FF3CF469537952795A795F04069
:1012D2005395C9F77EF41F16BA0B620B730B840B7E
:1012E200BAF09150A1F0FF0FBB1F661F771F881F36
:1012F200C2F70EC0BA0F621F731F841F48F487958E
:1013020077956795B795F7959E3F08F0B0CF93957F
:0E131200880F08F09927EE0F9795879508959C
:10132000CF92DF92EF92DC0190E0292F30E0220F84
:10133000331F6901032E000CEE086E2DA6014E5FCF
:101340005E4F6F4F6A01E62EFA018491E7FC8081BF
:1013500081110DC02F5F3F4F032E000C440B2E5FF9
:101360003E4F4F4FF901849147FD808124C0CD90BD
:10137000DD90EC901297F6014491E7FC40818413D4
:1013800015C02F5F3F4F032E000C440B2E5F3E4FC6
:101390004F4FF901949147FD90815FEFC51AD50A2F
:1013A000E50ACD92DD92EC92129701C09F5F9B30CF
:0E13B00008F4BBCF892FEF90DF90CF90089507
:1013BE0040E068ED80E690E00E94001140E068EDAC
:1013CE0081E690E00E94001140E068ED85E690E035
:1013DE000E94001140E068ED88E790E00E94001145
:1013EE004CE168ED88E690E00E94001140E068ED67
:1013FE0089E690E00E94001140E068ED80E790E001
:10140E000E94001140E068ED8CE790E00E94001110
:10141E0040E068ED82E690E00E94001140E068ED49
:10142E0083E690E00E94001140E068ED84E690E0D3
:10143E000E94001140E068ED80E890E00E940011EB
:0C144E00E0E6F0E0858181FFFDCF08950D
:10145A006F927F928F92EF92FF920F931F93CF9387
:10146A00DF93CDB7DEB76197CDBFDEBFFE01319600
:10147A0051E1DF011D925A95E9F7A2E0B1E0A98393
:10148A00BA838B839C8377FF09C08FE490E08093B3
:10149A000060909301608FEF9FEF19C03901842E8D
:1014AA007C01615071096E837F839801682DA301C5
:1014BA00CF010E94950F488559852E813F81421799
:1014CA00530708F49A01F701E20FF31F108261969D
:1014DA00CDBFDEBFDF91CF911F910F91FF90EF90AB
:0814EA008F907F906F90089530
:1014F2006F927F928F92AF92BF92CF92DF92EF92D2
:10150200FF920F931F93CF93DF935C013A01862ED4
:10151200E901670181E0C822DD24E0FC03C0201755
:10152200310758F09E01682DA301C5010E94770D75
:10153200C017D10710F0CE0118C07801EC1AFD0ACD
:10154200E114F10449F0B50180E290E00E940E0B33
:1015520081E0E81AF108F4CFCD2831F49E01682D1C
:10156200A301C5010E94770DC801DF91CF911F91A0
:101572000F91FF90EF90DF90CF90BF90AF908F9040
:061582007F906F900895B8
:10158800A3E8B0E0EAECFAE00C94820F5C014901B0
:10159800CF57DF4F488359836A83C158D040C12C45
:1015A800D12CCF57DF4F2881C158D040CE57DF4FBD
:1015B8009881C258D040CD57DF4F8881C358D0405A
:1015C800E22FF92F949187FD90819923E9F0740116
:1015D800860120E830E0AE014F5F5F4FBE016F57D4
:1015E8007F4FC5010E9451048C0D9D1D8C159D05D2
:1015F8004CF48FE490E080930060909301608FEF4B
:101608009FEF03C06C01CDCFC601CD57DF4FECE093
:041618000C94B30F6C
:10161C000F931F93CF93DF93DB012D913C91119787
:10162C0030FF25C017964D915C91189715962D910A
:10163C003C9116974217530778F41296ED91FC9152
:10164C001397808312962D913C9113972F5F3F4FE8
:10165C0012962D933C93139717962D913C911897B6
:10166C002F5F3F4F17962D933C93189715C01D96DF
:10167C00ED91FC911E97309719F48FEF9FEF0CC0F2
:10168C008B01EC010995892BC1F7F80187819085B5
:10169C00019687839087CE01DF91CF911F910F9197
:0216AC0008959F
:1016AE000E9444100E949E0B0E94CE0C83E10E9469
:1016BE00D110C8E6D0E60E94FC108823E1F30E9408
:1016CE00E310A0E0B0E088839983AA83BB8368947B
:1016DE0013F8B695A795979587951694D1F78E839F
:1016EE009F83BC0180E090E00E94DD0B20E030E0A3
:1016FE0048EC52E40E94081120E030E04AE755E43D
:10170E000E94041160937060709371608093726098
:10171E00909373600E94B7066091706070917160D3
:0E172E0080917260909173600E94930CC4CF02
:10173C00E2E0F0E6A2E3B0E68C91808311968C9106
:10174C001197818312968C918283A5E0B0E642E3D7
:10175C0050E681E018C0E82FF0E09F01220F331F04
:10176C00E20FF31FEE5CFF4990819C9391811196DF
:10177C009C931197928112969C9312978F5F87304E
:10178C0008F080E013964A175B0729F762E070E6D1
:10179C0080E840E150E00E94AB0D2FEF83ED90E329
:0E17AC00215080409040E1F700C000000895F9
:1017BA00E89409C097FB3EF49095809570956195E1
:1017CA007F4F8F4F9F4F9923A9F0F92F96E9BB2797
:1017DA009395F695879577956795B795F111F8CF13
:1017EA00FAF4BB0F11F460FF1BC06F5F7F4F8F4F7E
:1017FA009F4F16C0882311F096E911C0772321F074
:10180A009EE8872F762F05C0662371F096E8862F0B
:10181A0070E060E02AF09A95660F771F881FDAF762
:0A182A00880F9695879597F90895A9
:101834006F927F928F92CF92DF92EF92FF920F93EB
:101844001F93CF93DF936C01FB013901842EC801F0
:10185400C281D38104811581E080F180232B242B64
:1018640031F42CE3622E21E0722E20E0822E0097C8
:1018740021F4882DB3010E94C50FD7FD04C0C817F9
:10188400D90708F4CE019C01682DA301C6010E946A
:10189400790ADF91CF911F910F91FF90EF90DF9024
:0A18A400CF908F907F906F90089511
:1018AE00DC012D913D914C911297F901849147FDE8
:1018BE0080818A3221F080E090E07AE011C02F5FC3
:1018CE003F4F4F4F2D933D934C93DB01ED91FC9188
:1018DE001197CF0102968D939C93808191810895EB
:1018EE002D913D914C911297F901549147FD5081E4
:1018FE0050535A3080F4789FF001799FF00D1124E7
:10190E00CF01850F911D2F5F3F4F4F4F2D933D936D
:08191E004C931297E5CF0895E8
:101926000F931F93CF93DF93CDB7DEB7E297CDBF6B
:10193600DEBF9F938F937F936F9388E191E0A0E042
:10194600AF939F938F938E010F5F1F4F1F930F933C
:101956000E9403108EE191E0A0E0AF939F938F93D6
:101966000E94630FC801A0E8AF939F930F930E9454
:10197600630F89E291E0A0E0AF939F938F930E945B
:10198600630FCDBFDEBFE296CDBFDEBFDF91CF9145
:061996001F910F9108955E
:10199C001F93CF93DF93C2E0D0E618821FE0198328
:1019AC001A82688179818A8140E150E00E94BE0EE2
:1019BC002FEF89E698E1215080409040E1F700C07C
:1019CC000000188319821A82688179818A8140E12A
:1019DC0050E00E94BE0E2FEF89E698E12150804026
:1019EC009040E1F700C00000188319831A836881C6
:1019FC0079818A8140E150E00E94BE0EDF91CF9147
:041A0C001F91089589
:101A10001F920F920FB60F9211242F933F934F9363
:101A20005F936F937F938F939F93AF93BF93EF9346
:101A3000FF937D9B05C0E0918260F09183600995E2
:101A40007C9B05C0E0918060F091816009957F9B4F
:101A500005C0E0917C60F0917D6009958FEF8FB9B2
:101A6000FF91EF91BF91AF919F918F917F916F9176
:101A70005F914F913F912F910F900FBE0F901F904C
:021A80001895B7
:101A8200CF93DF9300D00F92CDB7DEB769837A830D
:101A92008B83DE0111969E012C5F3F4F1EC08C91FD
:101AA20088234CF46F9A83E08A95F1F700C06F980F
:101AB20000C000C009C06F9A00C000C000006F984B
:101AC20082E08A95F1F700008081880F808391502F
:101AD20031F71196A217B30719F098E0FD01DFCF95
:0C1AE2002396CDBFDEBFDF91CF910895A9
:101AEE006F927F928F92CF92DF92EF920F931F930E
:101AFE00CF93DF938C016A01E62EE9013A01862E1F
:101B0E00620E731E811C37FD8A94C614D704E80436
:101B1E0079F0F6018491E7FC8081B801082E000C63
:101B2E00990B0E940E0B8FEFC81AD80AE80AEDCF58
:101B3E00CE01DF91CF911F910F91EF90DF90CF905B
:081B4E008F907F906F900895C5
:101B56006F927F928F92CF92DF92EF92411551054D
:101B6600E1F03B01882E6B01E82ECA01880F991F10
:101B7600480F591F640E751E811C57FD8A94F60185
:101B86005E2D0E948C100E94410D83E0C80ED11C70
:101B9600E11CC614D704E80491F76F9887EC90E02F
:101BA6000197F1F700C00000EF90DF90CF908F9083
:061BB6007F906F9008957E
:101BBC000E94100F88F09F5798F0B92F9927B751B2
:101BCC00B0F0E1F0660F771F881F991F1AF0BA95D5
:101BDC00C9F714C0B13091F00E94BC10B1E0089567
:101BEC000C94BC10672F782F8827B85F39F0B93F59
:101BFC00CCF3869577956795B395D9F73EF4909588
:0E1C0C008095709561957F4F8F4F9F4F089583
:101C1A00E0E0F8E08BE09AE180879187158280EC1A
:101C2A00868383E08783138614861686158687E162
:101C3A0091E1809388609093896088E191E1809333
:101C4A0086609093876089E191E1809384609093A4
:101C5A00856010928A6010928B60E0918C60F0919E
:0C1C6A008D6087E490E6808391830895EC
:101C76001F920F920FB60F9211242F933F934F93FB
:101C86005F936F937F938F939F93AF93BF93EF93DE
:101C9600FF9382E080930D06E0917A60F0917B607D
:101CA600309709F00995FF91EF91BF91AF919F9100
:101CB6008F917F916F915F914F913F912F910F90EF
:081CC6000FBE0F901F9018954E
:101CCE001F920F920FB60F9211242F933F934F93A3
:101CDE005F936F937F938F939F93AF93BF93EF9386
:101CEE00FF9381E080930D06E0917860F09179602A
:101CFE00309709F00995FF91EF91BF91AF919F91A8
:101D0E008F917F916F915F914F913F912F910F9096
:081D1E000FBE0F901F901895F5
:101D26001F920F920FB60F9211242F933F934F934A
:101D36005F936F937F938F939F93AF93BF93EF932D
:101D4600FF93BB9B05C0E0917E60F0917F60099593
:101D56008FEF87BBFF91EF91BF91AF919F918F91CD
:101D66007F916F915F914F913F912F910F900FBE91
:061D76000F901F9018956C
:101D7C00CF92DF92EF920F931F93CF93DF93411586
:101D8C00510569F08A016B01E82EC0E0D0E08E2D80
:101D9C00B6010E94410D21960C171D07C1F76F98D3
:101DAC0087EC90E00197F1F700C00000DF91CF9134
:0C1DBC001F910F91EF90DF90CF900895E1
:101DC800990F0008550FAA0BE0E8FEEF1616170644
:101DD800E807F907C0F012161306E407F50798F0AC
:101DE800621B730B840B950B39F40A2661F0232BC5
:101DF800242B252B21F408950A2609F4A140A69541
:081E08008FEF811D811D08957B
:101E100057FD9058440F551F59F05F3F71F047959B
:101E2000880F97FB991F61F09F3F79F08795089580
:101E3000121613061406551FF2CF4695F1DF08C09F
:101E4000161617061806991FF1CF869571056105BC
:041E50000894089555
:101E5400FA0160387105CCF0623871051CF0633802
:101E6400710599F4A081B1819D012C5F3F4F2083BE
:101E740031834D915D916D917C91FC01408351833F
:101E84006283738381E090E0089580E090E0089598
:101E9400E0E0F6E084E0818381E0828313821482AF
:101EA40016861386148693E19087818715828FEFB7
:101EB4009FE0848B958B128A138A83E0808380E071
:021EC40008957F
:101EC600A0E0B0E0E9E6FFE00C948C0F9E012B5FEA
:101ED6003F4FF9014191519161919F01E0918C60D1
:101EE600F0918D60808191810E94950FE2E00C94C3
:021EF600BD0F1E
:101EF8002F923F924F925F926F927F928F929F9212
:101F0800AF92BF92CF92DF92EF92FF920F931F93FF
:101F1800CF93DF93CDB7DEB7CA1BDB0BCDBFDEBFD8
:021F280009941A
:101F2A00A2E0B0E0EBE9FFE00C948A0F8C01298370
:101F3A003A839E012F5F3F4F0E94C40AF801208115
:101F4A0024FF02C08FEF9FEF2296E4E00C94BB0FB0
:101F5A002A88398848885F846E847D848C849B842F
:101F6A00AA84B984C884DF80EE80FD800C811B813D
:101F7A00AA81B981CE0FD11DCDBFDEBFED01089573
:101F8A00CF92DF92EF926B01E82EA82FCB01FC01D2
:101F9A002491A7FD2081222319F00196A11DF7CFD4
:0C1FAA008C199D09EF90DF90CF900895F6
:101FB60097FB072E16F4009407D077FD09D00E94F0
:101FC600EF0F07FC05D03EF4909581959F4F08953D
:081FD600709561957F4F08959D
:101FDE00AA1BBB1B51E107C0AA1FBB1FA617B70741
:101FEE0010F0A61BB70B881F991F5A95A9F780955D
:081FFE009095BC01CD0108958E
:10200600A0E0B0E0E9E0F0E10C948C0F9E01265FC1
:102016003F4F4F81588569858D819E810E9475103D
:06202600E2E00C94BD0F86
:10202C00092E0394000C11F4882352F0BB0F40F4DA
:10203C00BF2B11F460FF04C06F5F7F4F8F4F9F4F1A
:02204C000895F5
:10204E00A29FB001B39FC001A39F700D811D1124EB
:0E205E00911DB29F700D811D1124911D0895DA
:10206C009A01462FDC01F901549147FD50815D9393
:0C207C002F5F3F4F4F4F5111F6CF0895DA
:102088000E94DE070E944A0F0E94DF090E940D0E7F
:0A2098000E94A7100E945110089545
:1020A20040E068ED80E191E00E940011E0E1F1E0A2
:0820B2001282138280E0089500
:1020BA00CF93C82F0E94D7108823E1F3C093020858
:0820CA0080E090E0CF91089541
:1020D200E2E0F0E682E390E6108212821182339609
:0820E200E817F907C9F708959A
:1020EA000F931F9389019A01462F6FEF7FE70E9492
:0820FA002D0A1F910F910895BA
:10210200EC010E941B110E941A11CE010E941C11A7
:06211200CE010E94111134
:1021180057FD04C0659175918591089561917191FC
:042128008191089504
:10212C00FC01480F591FE417F50711F06193FBCF21
:02213C00089504
:10213E009C01215431092A31310508F48062089539
:0E214E00E0EBF0E014821082128280E008952F
:0E215C0000240A9416161706180609060895A0
:0E216A0000240A9412161306140605060895A2
:0E217800E894BB2766277727CB0197F90895D7
:0E2186005058BB27AA270E9429090C94161056
:0E2194000E94DE0D6894B1110C94BD100895E8
:0C21A200E0E0F6E0808781E0828708958D
:0C21AE008091040885FB882780F90895C3
:0C21BA0097F99F6780E870E060E00895EE
:0A21C6008091100690911106089513
:0A21D0008F938FEF83B98F9118955C
:0A21DA008F938FEF8BB98F9118954A
:0A21E4000E94E40E08F481E0089563
:0A21EE000E94E40E08F48FEF08953C
:0821F80080910D06817008952D
:08220000FC0164BF4083089556
:082208000E9450080C9416100E
:082210000E94BF080C94161097
:062218009FEF80EC089529
:04221E000C9400001C
:042222000E947F0097
:02222600089519
:02222800089517
:02222A00089515
:02222C00089513
:02222E00089511
:0222300008950F
:0222320008950D
:0222340008950B
:02223600089509
:02223800089507
:10223A0000000F000F000F00000F0F00000F0F0F1C
:05224A00000F0F0F0F53
:10224F00030000000000000000000000005D10000F
:01225F00007E
:1022600003020701060B00050A0F04090E080D0CF6
:022270008E607E
:02000004008278
:090000000000000000D00800001F
:00000001FF
