:100000000C945D000C94E1120C94E1120C94E1123A
:100010000C94E1120C94E1120C94E1120C94E11294
:100020000C94B4120C94E1120C94E1120C94E112B1
:100030000C94E1120C94E1120C94E1120C94E11274
:100040000C94E1120C94E1120C94E1120C94E11264
:100050000C94E1120C94E1120C94E1120C94E11254
:100060000C942C0E0C94E1120C94BC0F0C94900F79
:100070000C94E1120C94B9120C94E1120C94E1125C
:100080000C94E1120C94E1120C94E80F0C94E11220
:1000900060006032806032608D0025DE608D60958A
:1000A00080609560A200263960A260BE8060BE605C
:1000B000C000264660C060C58000809101108F7C22
:1000C000806080688093011011241FBECFEFCDBFE8
:1000D000DFE7DEBFE0E9F0E040E017C0B591A591B1
:1000E00035912591059107FD0CC095918591EF0102
:1000F000F92FE82F05900D92A217B307D9F7FE014B
:1001000004C01D92A217B307E1F7E93BF40731F7EA
:0C0110000E94F60C0C944712F894FFCFEC
:10011C0025302E3266000A537472656E6774683A25
:04012C000025250085
:10013000AAE9B0E0EEE9F0E00C9434116C017A0128
:10014000C756DF4F68837983C959D040A12CB12CA1
:1001500066246A94762C90E8492E512C25E2222EB2
:10016000C756DF4F68817981C959D040FB01808132
:10017000882309F471C3CF57DF4F18821982C15801
:10018000D040CD57DF4F68827982C358D040CB57DB
:10019000DF4F18821982C558D04081E090E08C0F63
:1001A0009D1FC957DF4F88839983C758D040C757D1
:1001B000DF4F48825982C958D040FB0100E010E06F
:1001C0008191811116C001151105C1F0A801C60168
:1001D0000E94FD10C756DF4F88819981C959D040D0
:1001E000800F911FC756DF4F88839983C959D0402C
:1001F00005C0853241F30F5F1F4FE2CFC756DF4F77
:10020000E881F981C959D0408081853209F012C353
:100210004F019FEF891A990AC756DF4F888299824A
:10022000C959D040C756DF4F88819981C959D040FC
:10023000DC012C912B3241F4CF57DF4F28813981DB
:10024000C158D04024600BC02C32BCF02D3249F58F
:10025000CF57DF4F28813981C158D0402160CF5717
:10026000DF4F28833983C158D0400196C756DF4FEE
:1002700088839983C959D040D5CF203241F4CF57D4
:10028000DF4F28813981C158D0402860E8CF233220
:1002900091F4CF57DF4F28813981C158D040206178
:1002A000DECF203341F4CF57DF4F28813981C15849
:1002B000D0402260D4CF2A3289F50196C756DF4F4D
:1002C00088839983C959D040D701ED91FC9111974A
:1002D000CF0102968D939C9380819181CB57DF4F04
:1002E00088839983C558D04097FF35C0CF57DF4FDB
:1002F00028813981C158D040B1E02B27CF57DF4F3B
:1003000028833983C158D040919581959109CB5765
:10031000DF4F88839983C558D0401DC00E94650E69
:10032000CB57DF4F88839983C558D040C756DF4FDE
:10033000E881F981C959D0408081082E000C990BC1
:10034000C0970A9740F43196C756DF4FE883F98388
:10035000C959D040EBCFCF57DF4F88819981C15821
:10036000D04080FF07C08D7FCF57DF4F88839983B0
:10037000C158D040C756DF4FE881F981C959D040F4
:1003800080818E3209F046C0CD57DF4F1882198226
:10039000C358D040CF010196C756DF4F8883998359
:1003A000C959D04021812A32C1F43296C756DF4F55
:1003B000E883F983C959D040D701ED91FC91119799
:1003C000CF0102968D939C9380819181CD57DF4F11
:1003D00088839983C358D0401DC00E94650ECD57B5
:1003E000DF4F88839983C358D040C756DF4FE881D9
:1003F000F981C959D0408081082E000C990BC09713
:100400000A9740F43196C756DF4FE883F983C959FC
:10041000D040EBCFCE0187569F4F0E949F10382EC1
:10042000C756DF4FE881F981C959D0408081082E35
:10043000000C990B0E946B128936910509F456C085
:10044000B4F48336910509F46BC144F48532910507
:1004500009F4A2C18136910529F1B4C18436910510
:1004600009F444C0883691050CF436C1ABC180371D
:10047000910509F4C4C04CF48E36910509F420C1ED
:100480008F36910509F47AC09DC18537910509F42D
:1004900051C08837910509F495C08337910509F05B
:1004A00091C15DC1632D70E0A701CE0185579F4FBB
:1004B0000E94BF10892B09F4B0C1C756DF4FE881F5
:1004C000F981C959D040CF010196C756DF4F8883C3
:1004D0009983C959D0402081AE0145575F4FBE0175
:1004E0006F577F4FC6010E94DE1294C1632D70E0EA
:1004F000970141E050E0CE0185579F4F0E9472075F
:10050000892B09F48AC1C756DF4F88819981C9595F
:10051000D0400196C756DF4F88839983C959D04090
:10052000AE0145575F4FBE016F577F4FC6010E9416
:10053000DB1270C1632D70E0970140E050E0CE0106
:1005400085579F4F0E947207892B09F466C1C756D1
:10055000DF4F88819981C959D0400196C756DF4F36
:1005600088839983C959D040AE0145575F4FBE017A
:100570006F577F4FC6010E94DB124CC1632D70E0A4
:10058000970140E050E0CE0185579F4F0E947207CF
:10059000892B09F442C1C756DF4F88819981C95917
:1005A000D0400196C756DF4F88839983C959D04000
:1005B000AE0145575F4FBE016F577F4FC6010E9486
:1005C000DB1228C1632D70E0970140E050E0CE01BE
:1005D00085579F4F0E947207892B09F41EC1C75689
:1005E000DF4FE881F981C959D040CF010196C75644
:1005F000DF4F88839983C959D040208157C0970124
:1006000040E050E060EF70E0CE0185579F4F0E94C0
:100610007207892B09F401C1C756DF4F8881998180
:10062000C959D0400196C756DF4F88839983C9596D
:10063000D04086E0ECE9F0E6DE01AD56BF4F019018
:100640000D928A95E1F7C557DF4F2881CB58D040EE
:10065000C457DF4F3881CC58D040C357DF4F488153
:10066000CD58D040C257DF4F5881CE58D040C157E7
:10067000DF4F6881CF58D040C057DF4F7881C059D5
:10068000D040CF56DF4F8881C159D040CE56DF4F82
:100690009881C259D040A0E00E942F1231F420E08E
:1006A00030E0AE014D565F4FAFC028E7AE01455771
:1006B0005F4FBE016F577F4FC6010E94DE12AAC076
:1006C000632D70E09701A501400F511FCE018557A2
:1006D0009F4F0E94D00AA1C0632D70E0A701CE01F8
:1006E00085579F4F0E94BF10892B09F496C0C756AB
:1006F000DF4FE881F981C959D040CF010196C75633
:10070000DF4F88839983C959D0402081AE01455776
:100710005F4FBE016F577F4FC6010E9432047AC0FF
:10072000B0E83B127AC0C756DF4F88819981C9591A
:10073000D0400196C756DF4F88839983C959D0406E
:10074000D701ED91FC911197CF0102968D939C9367
:100750008081C557DF4F8883CB58D04050C0B0E868
:100760003B125BC0C756DF4F88819981C959D04081
:100770000196C756DF4F88839983C959D040D70166
:10078000ED91FC911197CF0102968D939C9340813E
:10079000518120E030E038C0B0E83B123EC0C7567F
:1007A000DF4F88819981C959D0400196C756DF4FE4
:1007B00088839983C959D040C557DF4F2882CB58C9
:1007C000D0401DC0C557DF4F2882CB58D040C756F8
:1007D000DF4F88829982C959D040CF57DF4F1882A6
:1007E0001982C158D040CB57DF4F18821982C558A3
:1007F000D040CD57DF4F68827982C358D04021E086
:1008000030E0AE0145575F4FBE016F577F4FC601C5
:100810000E949E0E800F911F0EC0C756DF4F888129
:100820009981C959D0400196C756DF4F8883998373
:10083000C959D040C8018501080F191F0A151B05A9
:100840004CF48FE490E080930060909301608FEF10
:100850009FEF03C0580184CCC501C656DF4FE2E1CB
:040860000C947D1166
:10086400A6E2B0E0E8E3F4E00C9434118E8F9F8F9D
:10087400688F798F122FFB010190F081E02DE987B9
:10088400FA87FB01C280D380248135812B8B3C8B7A
:100894008085918588A399A326803780FA0180807A
:1008A4009180A280B38020E030E0A901C501B401A9
:1008B4000E94BE1287FF06C0B7FAB094B7F8B0948E
:1008C4008DE204C0598552FFF0C28BE2F1018083AE
:1008D4002B893C89215031092F83388741E050E02E
:1008E400498B5A8B06C08B899C898F839887198A78
:1008F4001A8AD501C401BF770097E0E8AE07EFE795
:10090400BE07B1F4212F110F330B2154310989890A
:100914009A89820D931D2A31310518F46DE770E62A
:1009240002C061E870E60E94631281E890E6ADC2FD
:100934000197A048BF47B0F0212F110F330B21546A
:10094400310989899A89820D931D2A31310518F458
:1009540065E870E602C069E870E60E94631289E8FF
:1009640090E693C220E030E0A901C501B4010E94E1
:10097400BE121B821C82882309F46CC020E82D83DC
:100984003FE33E8319821A8220E030E040E251E4E2
:100994006B817C818D819E810E94D412F62E072F5B
:1009A4008D879B87A50194010E94C31218166CF0D1
:1009B40049815A814F5F5F4F49835A83FB820C837D
:1009C4005D855D838B858E83DFCF1B861C862B81A3
:1009D4003C814D815E81C501B4010E94BE1287FF36
:1009E4003FC0E981FA81E43DFE4F04F54B855C8507
:1009F400452BE1F420E030E040E85AE5C501B401BC
:100A04000E94D4124B015C0120E030E040E85AE53A
:100A14006B817C818D819E810E94D4126B837C8347
:100A24008D839E8381E090E08B879C8720E030E07B
:100A340040E251E46B817C818D819E810E94D012C1
:100A44006B837C838D839E83E981FA813197E9836B
:100A5400FA83BDCFF0E8FD832FE32E8319821A8237
:100A6400412F110F550B4AA35BA3CA010E946B12BD
:100A74008B8FD7FC03C0CDA2DEA204C086E090E039
:100A84008DA39EA39B8D973641F4CD2809F012C205
:100A9400E1E0F0E0EDA3FEA30DC28B8D8D8B06C0CB
:100AA40029813A8137FF19C296E69D8BEDA1FEA1FB
:100AB4003196EDA3FEA3FD89F636B9F429813A8176
:100AC40037FF08C01B821C8230E83D834FE34E830E
:100AD40019821A825B8D573641F08DA19EA1E9815E
:100AE400FA818E0F9F1F8DA39EA3FB81FB872C8110
:100AF4002D873D813E8B4E814A8F750164011C8E8A
:100B04001D8EEC8DFD8D2DA13EA1E217F307B9F1E9
:100B14002B853D854E895A8DC701B6010E94D0129E
:100B24000E945C092B013C010E9496126CA3870170
:100B3400760117FB109517F910952B853D854E8985
:100B44005A8DC301B2010E942B086B017C01F7FA94
:100B5400F094F7F8F09420E030E040E251E46B8543
:100B64007D858E899A8D0E94D0126B877D878E8BAE
:100B74009A8F8C8D9D8D01968C8F9D8FC2CF20E096
:100B840030E040EA50E46B857D858E899A8D0E9421
:100B9400D4122B013C019B01AC01C701B6010E9498
:100BA400BE1287FD0BC0A3019201C701B6010E94CA
:100BB400BE12811106C03CA130FD03C0412C512C52
:100BC4003201A3019201C501B4010E9490124B01AC
:100BD4005C014D89453619F069807A8002C0612C28
:100BE400712C23018DA19EA1481A590AC988DA885B
:100BF40000E010E01B861C86E985FA85E071FF277A
:100C0400EE8BFF8B6414750431F4EB85FC85EF2BBC
:100C140009F496C0A1C0CC8EDD8EE88DF98D808557
:100C240091850597C816D90680F72B813C814D81A3
:100C34005E81C501B4010E94D0120E945C096D87D7
:100C44007E878F87988B0E949612CB012E893F89CD
:100C5400232B69F4892B59F43B8D373641F477FE05
:100C640006C0A8014F5F5F4F4C8F5D8F3FC08B85DF
:100C74009C85892BA9F477FE13C09FEFC91AD90A62
:100C8400EC8DFD8DE20DF31D2EE220834F815885FE
:100C9400415051094F83588781E090E08B879C87AE
:100CA400F101EC0DFD1D0C8F1D8F4C8D5D8D452BC1
:100CB40049F090E391932C8D3D8D215031092C8F77
:100CC4003D8FF3CFC8018C0D9D1D2F813885201BCE
:100CD400310B6C015FEFC51AD50AF101E80FF91F5A
:100CE400605D6083C90101978F83988785017401D2
:100CF40017FB109517F910952B813C814D815E816E
:100D04006D857E858F8598890E942B084B015C0137
:100D1400B7FAB094B7F8B09420E030E040E251E480
:100D24006B817C818D819E810E94D0126B837C8338
:100D34008D839E8391E0691A71080C8D1D8D62CF9D
:100D4400F985F4FF09C0F101EC0DFD1D8EE28083ED
:100D540096012F5F3F4F6901A1014C0D5D1D4B872B
:100D64005C87FA011082FD89F53609F061C0E8A1BB
:100D7400F9A1E20DF31D3197108229813A8137FFE1
:100D840008C031952195310929833A8301E010E0A7
:100D940002C000E010E0E8A1F9A13197E20DF31DD3
:100DA40022E030E08AE0E82EF12CCF018219930989
:100DB40049815A81452B91F089819A81B7010E941A
:100DC4009511805D829369837A83215031094F8123
:100DD4005885415051094F835887E7CF121613069F
:100DE4005CF3FC013197E20DF31D012B11F42BE2AE
:100DF40001C02DE220830297B101680F791F2AA157
:100E04003BA1215431092A31310510F025E601C0F6
:100E140025E4FB0120832F813885225031092F835B
:100E24003887C816D90624F48B859C850E946312E2
:100E3400398531FF29C030FD27C04F8158851416EC
:100E4400150614F5C1010E94EF11820D931D9C013A
:100E54002219330949895A89241735074CF0FC01B2
:100E64002081EF81F885E80FF91F20830197EFCFE8
:100E74004F81588560E370E089899A89820D931DBA
:100E84000E9452121B8A1C8AC1010E94EF1109851B
:100E94001A852B893C89AC01B1018E8D9F8D0E94EE
:100EA4000D0CA696E2E10C947D11598553FF1BCDE0
:100EB40080E20CCD89819A818C3F9F4F5CF029811F
:100EC4003A814DA15EA1241735070CF4E9CD55E60E
:100ED4005D8B0BCEF5E6FD8B08CE36E63D8B05CE5D
:100EE4000F931F93CF93DF93FC01D90168387105E9
:100EF40031F194F461387105B1F12CF46038710565
:100F040009F478C09FC06238710509F459C0643887
:100F1400710509F46FC096C0603A710509F448C0C0
:100F24002CF46039710509F44BC08CC0603C710528
:100F340009F476C0603F710509F472C083C0CD9195
:100F4400DC911197CE0102968D939C93452B39F039
:100F54009881892F880F880B908381835BC0888157
:100F64008083118268C0CD91DC911197CE010496E3
:100F74008D939C93452B99F088819981AA81BB819B
:100F8400AC01BD01770F440B542FBA0180839183C8
:100F9400A283B383448345834683478328C008815F
:100FA40019812A813B81008311832283338345C0C5
:100FB400CD91DC911197CE0102968D939C9323C021
:100FC400CD91DC911197CE0108968D939C937881F5
:100FD40069815A814B813C812D819E818F817083EF
:100FE400618352834383348325839683878381E09B
:100FF40090E02AC0CD91DC911197CE0102968D9399
:101004009C93452BA1F099812881892F880F880B07
:101014002083918382838383848385838683E6CF3D
:10102400CD91DC911197CE0102968D939C9308810A
:10103400198100831183128213821482158216820D
:101044001782D5CF80E090E0DF91CF911F910F916F
:021054000895FD
:10105600A5E1B0E0E1E3F8E00C9434114701580152
:101066000E94D4122B013C01A80197010E94901204
:10107600162FC72ED82EF92E862F9C2DAD2DBF2DBF
:1010860089839A83AB83BC83AA81FB81EC81ED8043
:101096003E802F8008850D8B5E2F5F71212F3A2FA2
:1010A6004F2F60E070E080E090E0211531054105AA
:1010B60000E15007610571058105910509F05EC0E3
:1010C6005E2F6E2D732D822D9D8904E30E94E11003
:1010D6002D873E874F87588B698B7A8B8B8B9C8BA2
:1010E6008D859E8597708F3F974009F447C0A30171
:1010F6009201612F7C2D8D2D9F2D0E948F129B01B9
:10110600AC01C501B4010E94BE128823B9F149861B
:101116005A866B867C8629853A854B855C85C50112
:10112600B4010E949012B62E872E982EA92E262F35
:10113600372F482F592F612F7C2D8D2D9F2D0E94E3
:10114600BE12811118C02B2D8B2D982DA92DBA2DCD
:1011560089839A83AB83BC833A814B815C816E2DF4
:10116600732D822D9D89A1E00E943B12122FC32E62
:10117600D42EF52E03C01B2D6401FA2C612F7C2D75
:0C1186008D2D9F2D6596E2E10C947D11EB
:1011920080919360909194609C01329522952F707A
:1011A20023273F7023272093C4604FE0489F90017C
:1011B200499F300D112436952795329522952F702F
:1011C20023273F702327A9E1B4E00E94E0119695FE
:1011D20087958093C3600E9423129091C3609F30D1
:1011E200B9F04091C46080E0E82FF0E0E359FF4994
:1011F200E081F0E09F01220F331FE20FF31FEE5F49
:10120200FF491082118242838F5F981768F732C0BC
:101212008091A6609091A760A091A860B091A9600A
:101222000196A11DB11D8F309105A105B10548F1AF
:101232001092A6601092A7601092A8601092A96006
:101242008091C2608F5F873018F48093C26021C0A2
:101252001092C2601EC0ED91F0E0CF01880F991F7D
:10126200E80FF91FEE5FFF49608351834283A217A3
:10127200B30789F760E170E082E090E60E945B10BC
:1012820008958093A6609093A760A093A860B093FE
:10129200A9608091C26090E0FC01EE0FFF1FE80F91
:1012A200F91FE85BFF49608151814281ADE6B0E6FA
:0612B2002DE730E6D0CF6D
:1012B8004F925F926F927F928F929F92AF92BF925E
:1012C800CF92DF92EF92FF92CF93DF93CDB7DEB745
:1012D8002897CDBFDEBF6B017C01DC01CB0147E164
:1012E800B695A795979587954A95D1F799278F57DA
:1012F8009109873191059CF597FD36C088248A9419
:10130800982C3FE7A32EB12C04C0B594A7949794CA
:1013180087948A95D2F7D501C4018C219D21AE21ED
:10132800BF21892B8A2B8B2BD1F020E030E040E8BD
:101338005BE7C701B6010E9490126D837E838F839D
:101348009887F7FE04C0C80CD91CEA1CFB1C8094C3
:101358009094A094B094C820D920EA20FB205C2D5A
:101368004D2D3E2D2F2D21C020E030E040E85BE7D9
:10137800C701B6010E94901269837A838B839C838C
:10138800F7FE0FC0D701C601880F991FAA1FBB1F00
:10139800892B8A2B8B2B19F350E040E030E82FEB98
:1013A80004C050E040E030E020E0652F742F832F28
:1013B800922F2896CDBFDEBFDF91CF91FF90EF909F
:1013C800DF90CF90BF90AF909F908F907F906F905D
:0613D8005F904F900895A4
:1013DE00CF93DF9380E094E0FC011082C0E4D4E070
:1013EE001882A0E6B4E020E92C9340EA54E0FA011A
:1013FE001082FC0114821C8220E114962C93149707
:10140E00FA011482FC01108A118A128A138A148A34
:10141E00158A168A178A188A198A1A8A1B8A1C8AAA
:10142E001D8A1E8A1F8A50961C92509751961C92A6
:10143E00519752961C92529753961C9253975496CC
:10144E001C92549755961C92559756961C925697E9
:10145E0057961C92FA01108A118A128A84E0838BA5
:10146E00148A158A168A178AE0EEF5E01182108228
:10147E001582178210861186168283E0828385EE8E
:10148E0092E18093B4609093B56086EE92E1809382
:10149E00B2609093B36087EE92E18093B0609093C8
:1014AE00B16088EE92E18093AE609093AF60DF9171
:0414BE00CF9108952D
:1014C20010C00E947A1258F00E94731240F029F460
:1014D2005F3F29F00C94A91251110C9482120C94C2
:1014E200D8120E947D1068F39923B1F3552391F32A
:1014F200951B550BBB27AA2762177307840738F081
:101502009F5F5F4F220F331F441FAA1FA9F335D0DD
:101512000E2E3AF0E0E832D091505040E695001C91
:10152200CAF72BD0FE2F29D0660F771F881FBB1F4B
:10153200261737074807AB07B0E809F0BB0B802D29
:10154200BF01FF2793585F4F3AF09E3F510578F055
:101552000C94A9120C9482125F3FE4F3983ED4F3E8
:10156200869577956795B795F7959F5FC9F7880F29
:10157200911D9695879597F90895E1E0660F771F7B
:10158200881FBB1F621773078407BA0720F0621B0C
:0E159200730B840BBA0BEE1F88F7E0950895DB
:1015A000CF93DF93DC01F90164387105D9F164F45C
:1015B0006138710521F16238710509F440C0603865
:1015C000710509F054C02EC060397105C1F184F471
:1015D0006838710509F04BC0C081D181CE010296F7
:1015E00080839183E881F981ED93FC9340833CC033
:1015F000603A7105B9F0603C7105A1F038C0C08156
:10160000D181CE01029680839183E881F981ED93A7
:10161000FC93052E000C660B770B4083518362838D
:10162000738322C0C081D181CE01029680839183D1
:10163000E881F981ED93FC934083518315C0C0810B
:10164000D181CE01029680839183E881F981ED9367
:10165000FC9340835183852F880F880B828383837B
:10166000848385838683878381E090E002C080E065
:0816700090E0DF91CF91089595
:101678000FC00E94731238F00E947A1220F095234E
:1016880011F00C94A9120C94D81211240C94821203
:101698000E947D1070F3959FC1F3950F50E0551F80
:1016A800629FF001729FBB27F00DB11D639FAA27AF
:1016B800F00DB11DAA1F649F6627B00DA11D661FFE
:1016C800829F2227B00DA11D621F739FB00DA11D1F
:1016D800621F839FA00D611D221F749F3327A00DD9
:1016E800611D231F849F600D211D822F762F6A2F75
:1016F80011249F5750409AF0F1F088234AF0EE0FDA
:10170800FF1FBB1F661F771F881F91505040A9F706
:101718009E3F510580F00C94A9120C9482125F3FF1
:10172800E4F3983ED4F3869577956795B795F79542
:10173800E7959F5FC1F7FE2B880F911D96958795BA
:0417480097F9089570
:10174C0011C00E94731238F00E947A1220F039F402
:10175C009F3F19F426F40C94D8120EF4E095E7FB95
:10176C000C94A912E92F0E947D1058F3BA17620746
:10177C0073078407950720F079F4A6F50C94811271
:10178C000EF4E0950B2EBA2FA02D0B01B901900190
:10179C000C01CA01A0011124FF27591B99F0593FD4
:1017AC0050F4503E68F11A16F040A22F232F342F1C
:1017BC004427585FF3CF469537952795A795F0406A
:1017CC005395C9F77EF41F16BA0B620B730B840B7F
:1017DC00BAF09150A1F0FF0FBB1F661F771F881F37
:1017EC00C2F70EC0BA0F621F731F841F48F487958F
:1017FC0077956795B795F7959E3F08F0B0CF939581
:0E180C00880F08F09927EE0F9795879508959D
:10181A00A0E1B0E0E3E1FCE00C9436115C013B018D
:10182A006A017901280181E04822552400FD14C08B
:10183A00421753078CF487010C191D094801A801A6
:10184A000131110510F040E150E060E270E0CE0194
:10185A0001960E9452120AC0A601B301C5010E9454
:10186A00FD10CE14DF043CF3C60120C0003111057F
:10187A0058F040E150E0BE016F5F7F4FC5010E9402
:10188A00FD1000511109F2CFA4014F705527BE0176
:10189A006F5F7F4FC5010E94FD104114510429F466
:1018AA00A601B301C5010E94FD10C7016096E0E1DF
:0418BA000C947F11FA
:1018BE0040E068ED80E690E00E94CC1241E068EDD9
:1018CE0081E690E00E94CC1240E068ED85E690E063
:1018DE000E94CC1240E068ED88E790E00E94CC12A6
:1018EE0040E268ED88E690E00E94CC1240E068EDA0
:1018FE0089E690E00E94CC1240E068ED80E790E02F
:10190E000E94CC1240E068ED8CE790E00E94CC1271
:10191E0040E068ED82E690E00E94CC1240E068ED77
:10192E0083E690E00E94CC1240E068ED84E690E001
:10193E000E94CC1240E068ED80E890E00E94CC124C
:0C194E00E0E6F0E0858181FFFDCF089508
:10195A000F931F93CF93DF93DB012D913C91119746
:10196A0030FF25C016964D915C91179714962D91CC
:10197A003C9115974217530778F41296ED91FC9112
:10198A001397808312962D913C9113972F5F3F4FA7
:10199A0012962D933C93139716962D913C91179777
:1019AA002F5F3F4F16962D933C93179715C01C96A1
:1019BA00ED91FC911D97309719F48FEF9FEF0CC0B2
:1019CA008B01EC010995892BC1F7F8018681978172
:1019DA00019686839783CE01DF91CF911F910F9154
:0219EA0008955E
:1019EC000E940A120E943D0D0E94B80D83E10E94D4
:1019FC009D12CDE8D0E60E94C8128823E1F30E9424
:101A0C00AF12A0E0B0E088839983AA83BB8368946B
:101A1C0013F8B695A795979587951694D1F78E835D
:101A2C009F83BC0180E090E00E947B0D20E030E0C1
:101A3C0048EC52E40E94D41220E030E04AE755E42E
:101A4C000E94D0126093A2607093A3608093A460F4
:101A5C009093A5600E94C9086091A2607091A360E8
:0E1A6C008091A4609091A5600E94D20EC4CF1C
:101A7A00E2E0F0E6A8E4B0E68C91808311968C91BE
:101A8A001197818312968C918283A5E0B0E642E396
:101A9A0050E681E018C0E82FF0E09F01220F331FC3
:101AAA00E20FF31FE85BFF4990819C9391811196A5
:101ABA009C931197928112969C9312978F5F87300D
:101ACA0008F080E013964A175B0729F760E170E097
:101ADA0082E090E60E945B102FE784E89EE12150A5
:0C1AEA0080409040E1F700C0000008952B
:101AF600E89409C097FB3EF49095809570956195A2
:101B06007F4F8F4F9F4F9923A9F0F92F96E9BB2757
:101B16009395F695879577956795B795F111F8CFD3
:101B2600FAF4BB0F11F460FF1BC06F5F7F4F8F4F3E
:101B36009F4F16C0882311F096E911C0772321F034
:101B46009EE8872F762F05C0662371F096E8862FCC
:101B560070E060E02AF09A95660F771F881FDAF723
:0A1B6600880F9695879597F908956A
:101B70001F93CF93DF93C2E0D0E618821FE0198352
:101B80001A82688179818A8140E150E00E941310B5
:101B90002FE382E49FE0215080409040E1F700C0B5
:101BA0000000188319821A82688179818A8140E154
:101BB00050E00E9413102FE382E49FE02150804008
:101BC0009040E1F700C00000188319831A836881F0
:101BD00079818A8140E150E00E941310DF91CF911A
:041BE0001F910895B4
:101BE400A0E1B0E0E8EFFDE00C944011FB01BA0184
:101BF400AE014F5F5F4F7A0140E1D7011D924A95D4
:101C0400E9F742E051E049835A838B839C83F7FFD1
:101C140009C08FE490E080930060909301608FEF9F
:101C24009FEF14C0A9018C013197ED83FE83C70196
:101C34000E9465114F8158852D813E8142175307BB
:101C440008F49A01F801E20FF31F10826096E6E0AF
:041C54000C94891152
:101C58001F920F920FB60F9211242F933F934F9319
:101C68005F936F937F938F939F93AF93BF93EF93FC
:101C7800FF937D9B05C0E091B460F091B560099534
:101C88007C9B05C0E091B260F091B36009957F9BA1
:101C980005C0E091AE60F091AF6009958FEF8FB904
:101CA800FF91EF91BF91AF919F918F917F916F912C
:101CB8005F914F913F912F910F900FBE0F901F9002
:021CC80018956D
:101CCA00AC01FA0190814F5F5F4F9032D1F3292F17
:101CDA00092E000C330B295031092530310588F3C0
:101CEA009B3209F540E050E0319602C040E050E0F6
:101CFA0080E090E06AE02191022E000C330B205321
:101D0A0031092A30310548F4689FD001699FB00D26
:101D1A001124CD01821B930BEECF452B49F49195EB
:101D2A008195910908959D3209F741E050E0DCCF91
:021D3A0008950A
:101D3C00A7E0B0E0E4EAFEE00C943A115C017A0111
:101D4C00C90127E0E5E9F0E6DE01119601900D925C
:101D5C002A95E1F7FB01C280D380848095800081B5
:101D6C001181452B21F49E012F5F3F4F7901009784
:101D7C0019F4C7010E94EF11D7FC04C0C816D9068C
:101D8C0008F4C6019401AC01B701C5010E940D0C09
:081D9C002796ECE00C94831182
:101DA4000F931F93CF93DF93CDB7DEB7E297CDBFE9
:101DB400DEBF9F938F937F936F938CE191E89F9302
:101DC4008F938E010F5F1F4F1F930F930E94BD11BE
:101DD40082E291E89F938F930E944D111F930F937A
:101DE4000E944D118DE291E89F938F930E944D11B3
:101DF400CDBFDEBFE296CDBFDEBFDF91CF911F9195
:041E04000F9108959D
:101E0800CF93DF9300D00F92CDB7DEB769837A8383
:101E18008B83DE0111969E012C5F3F4F17C08C917A
:101E2800882334F46F9A82E08A95F1F76F9805C099
:101E38006F9A00C000006F9800C08081880F80836F
:101E4800915069F71196A217B30719F098E0FD01B0
:0E1E5800E6CF2396CDBFDEBFDF91CF91089578
:101E66000E94851088F09F5798F0B92F9927B7518F
:101E7600B0F0E1F0660F771F881F991F1AF0BA9528
:101E8600C9F714C0B13091F00E948112B1E00895F3
:101E96000C948112672F782F8827B85F39F0B93FE5
:101EA600CCF3869577956795B395D9F73EF49095DB
:0E1EB6008095709561957F4F8F4F9F4F0895D7
:101EC400E0E0F8E087E490E180879187158280EC78
:101ED400868383E08783138614861686158689EEA7
:101EE40092E18093BA609093BB608AEE92E1809312
:101EF400B8609093B9608BEE92E18093B660909352
:101F0400B7601092BC601092BD60E091BE60F09129
:0C1F1400BF608DE590E680839183089506
:101F20001F920F920FB60F9211242F933F934F934E
:101F30005F936F937F938F939F93AF93BF93EF9331
:101F4000FF9382E080930D06E091AC60F091AD606C
:101F5000309709F00995FF91EF91BF91AF919F9153
:101F60008F917F916F915F914F913F912F910F9042
:081F70000FBE0F901F901895A1
:101F78001F920F920FB60F9211242F933F934F93F6
:101F88005F936F937F938F939F93AF93BF93EF93D9
:101F9800FF9381E080930D06E091AA60F091AB6019
:101FA800309709F00995FF91EF91BF91AF919F91FB
:101FB8008F917F916F915F914F913F912F910F90EA
:081FC8000FBE0F901F90189549
:101FD0001F920F920FB60F9211242F933F934F939E
:101FE0005F936F937F938F939F93AF93BF93EF9381
:101FF000FF93BB9B05C0E091B060F091B160099583
:102000008FEF87BBFF91EF91BF91AF919F918F9120
:102010007F916F915F914F913F912F910F900FBEE4
:062020000F901F901895BF
:10202600CF92DF92EF920F931F93CF93DF934115D9
:10203600510569F08A016B01E82EC0E0D0E08E2DD3
:10204600B6010E94040F21960C171D07C1F76F9861
:1020560086EA8A95F1F700C0DF91CF911F910F9123
:08206600EF90DF90CF90089588
:10206E00990F0008550FAA0BE0E8FEEF161617069B
:10207E00E807F907C0F012161306E407F50798F003
:10208E00621B730B840B950B39F40A2661F0232B1C
:10209E00242B252B21F408950A2609F4A140A69598
:0820AE008FEF811D811D0895D3
:1020B6000F931F93CF93DF936115710589F0EC01A0
:1020C6008B01000F111F600F711F8C01060F171F68
:1020D6006991799189910E94040FC017D107C1F7C0
:1020E6006F9886EA8A95F1F700C0DF91CF911F912C
:0420F6000F910895A9
:1020FA0057FD9058440F551F59F05F3F71F04795AF
:10210A00880F97FB991F61F09F3F79F08795089593
:10211A00121613061406551FF2CF4695F1DF08C0B2
:10212A00161617061806991FF1CF869571056105CF
:04213A000894089568
:10213E00CF93DF93EC0190E0E92FF0E0EE0FFF1F5D
:10214E00EE5CFF498081811102C081810EC0A881A1
:10215E00B9812C91821305C091811196A883B98300
:10216E0001C09F5F9B3040F3892FDF91CF9108957F
:10217E00FA0160387105CCF0623871051CF06338D5
:10218E00710599F4A081B1819D012C5F3F4F208391
:10219E0031834D915D916D917C91FC014083518312
:1021AE006283738381E090E0089580E090E008956B
:1021BE0097FB10F8169400080F93083098F008500B
:1021CE00232F342F452F562F672F782F892F902DA1
:1021DE00F4CF05949795879577956795579547957D
:0C21EE00379527950A95AAF70F910895E0
:1021FA00A0E0B0E0E3E0F1E10C943E116C01EB01E8
:10220A008A017B01E40EF51ECE15DF0541F08991A6
:10221A00B601082E000C990B0E94AD0CF5CFC8012F
:0A222A00CDB7DEB7E8E00C94871191
:10223400E0E0F6E084E0818381E08283138214820B
:1022440016861386148693E19087818784E18583BB
:102254008FEF9FE0848B958B128A138A83E08083AF
:0422640080E0089579
:102268002F923F924F925F926F927F928F929F929E
:10227800AF92BF92CF92DF92EF92FF920F931F938C
:10228800CF93DF93CDB7DEB7CA1BDB0BCDBFDEBF65
:022298000994A7
:10229A00A0E0B0E0E3E5F1E10C944411AE014B5F3C
:1022AA005F4FFA0161917191AF01E091BE60F091C7
:1022BA00BF60808191810E946511E2E00C948D11CA
:1022CA00A2E0B0E0EBE6F1E10C9442118C01498303
:1022DA005A83AE014F5F5F4F0E949800F801208138
:1022EA0024FF02C08FEF9FEF2296E4E00C948B113B
:1022FA002A88398848885F846E847D848C849B848C
:10230A00AA84B984C884DF80EE80FD800C811B8199
:10231A00AA81B981CE0FD11DCDBFDEBFED010895CF
:10232A0097FB072E16F4009407D077FD09D00E9478
:10233A00A91107FC05D03EF4909581959F4F089509
:08234A00709561957F4F089525
:10235200AA1BBB1B51E107C0AA1FBB1FA617B707C9
:1023620010F0A61BB70B881F991F5A95A9F78095E5
:082372009095BC01CD01089516
:10237A00A0E0B0E0E3ECF1E10C944411AE01475F58
:10238A005F4F6F8178858D819E810E948812E2E07D
:04239A000C948D1101
:10239E00092E0394000C11F4882352F0BB0F40F465
:1023AE00BF2B11F460FF04C06F5F7F4F8F4F9F4FA5
:0223BE00089580
:1023C000A29FB001B39FC001A39F700D811D112476
:0E23D000911DB29F700D811D1124911D089565
:1023DE00FC01AF014F5F5F4F2081222311F0FA0104
:0C23EE00F8CF9F01281B390BC90108958E
:1023FA0040E068ED80E191E00E94CC12E0E1F1E07A
:0A240A0012821382789480E0089596
:102414000E94EF090E941A110E945F0C0E94620F31
:0A2424000E945B120E94FD11089552
:10242E00CF93C82F0E94A3128823E1F3C093020812
:08243E0080E090E0CF910895C9
:10244600E2E0F0E682E390E6108212821182339691
:08245600E817F907C9F7089522
:10245E000024A7FD00942A1730054005500560059D
:08246E0070058005900508953A
:102476000024A7FD00942A0F301D401D501D601D2D
:08248600701D801D901D0895DA
:10248E00EC010E94ED120E94EC12CE010E94EE129F
:06249E00CE010E94E312D2
:1024A400FC01480F591FE417F50711F06193FBCFA6
:0224B400089589
:1024B600E0EBF0E0148285E08083828380E008957B
:1024C600FC01DB012D91BD0121932111FACF089565
:1024D6009C01215431092A31310508F4806208959E
:0E24E60000240A941616170618060906089513
:0E24F40000240A941216130614060506089515
:0E250200E894BB2766277727CB0197F9089549
:0E2510009A01AB016FEF7FE70E94F20D089574
:0E251E005058BB27AA270E94A60B0C94CF1181
:0E252C000E94330F6894B1110C94821208952E
:0C253A00E0E0F6E0808781E082870895F1
:0C2546008091040885FB882780F9089527
:0C25520097F99F6780E870E060E0089552
:0A255E008091100690911106089577
:0A2568008F938FEF83B98F911895C0
:0A2572008F938FEF8BB98F911895AE
:0A257C000E94371008F481E0089572
:0A2586000E94371008F48FEF08954B
:0825900080910D068170089591
:08259800FC0164BF40830895BB
:0825A0000E94610A0C94CF11A6
:0825A8000E943C0B0C94CF11C2
:0625B0009FEF80EC08958E
:0625B60080E090E00895B2
:0625BC0080E090E00895AC
:0425C2000C94000075
:0425C6000E948C00E3
:0225CA00089572
:0225CC00089570
:0225CE0008956E
:0225D00008956C
:0225D20008956A
:0225D400089568
:0225D600089566
:0225D800089564
:0225DA00089562
:0225DC00089560
:1025DE0068076C094C836A9074A07AC00080688882
:0625EE0000846C820081F4
:1025F40000000F000F000F00000F0F00000F0F0F5F
:05260400000F0F0F0F95
:102609000300000000000000000000001712000095
:1026190003020701060B00050A0F04090E080D0C39
:10262900494E4600696E66004E414E006E616E006D
:07263900286E756C6C29008E
:06264000286E696C290000
:02264600C06072
:02000004008278
:090000000000000000D00800001F
:00000001FF
