:100000000C945D000C948D100C948D100C948D103C
:100010000C948D100C948D100C948D100C948D10EC
:100020000C9466100C948D100C948D100C948D1003
:100030000C948D100C948D100C948D100C948D10CC
:100040000C948D100C948D100C948D100C948D10BC
:100050000C948D100C948D100C948D100C948D10AC
:100060000C94CD0B0C948D100C94280D0C94FC0C5E
:100070000C948D100C946B100C948D100C948D10AE
:100080000C948D100C948D100C94540D0C948D10B8
:1000900060006032806032608D002136608D609536
:1000A00080609560A200219160A260BE8060BE6009
:1000B000C000219E60C060C58000809101108F7CCF
:1000C000806080688093011011241FBECFEFCDBFE8
:1000D000DFE7DEBFE0E9F0E040E017C0B591A591B1
:1000E00035912591059107FD0CC095918591EF0102
:1000F000F92FE82F05900D92A217B307D9F7FE014B
:1001000004C01D92A217B307E1F7E93BF40731F7EA
:0C0110000E945B0A0C94FA0FF894FFCFD9
:10011C0025302E3266000A537472656E6774683A25
:04012C000025250085
:10013000A8E2B0E0EEE9F0E00C94F40E89A39AA3F3
:10014000688F798F2A8FFB010190F081E02DED8778
:10015000FE87FB010280F381E02DEB83FC83FB0132
:100160000480F581E02DEC8BFD8BFB010084F18593
:10017000E02DEDA3FEA3FB010680F781E02DE983CE
:10018000FA83FA01408051806280738020E030E081
:10019000A901C301B2010E94701087FF06C077FA5F
:1001A000709477F870948DE204C0FD85F2FF6DC302
:1001B0008BE2E981FA8180832C893D8921503109C4
:1001C0002F83388741E050E04A8B5B8B06C08C89D7
:1001D0009D898F8398871A8A1B8AD301C201BF77B2
:1001E0000097E0E8AE07EFE7BE07C9F42A8D022EBC
:1001F000000C330B2154310989819A814A895B892A
:10020000840F951F2A31310518F46DE770E602C09E
:1002100061E870E60E940E1081E890E625C3019720
:10022000A048BF47E8F08A8D082E000C990B815436
:1002300091098B839C8389819A81EA89FB898E0F3E
:100240009F1F2B813C812A31310518F465E870E647
:1002500002C069E870E60E940E1089E890E604C3C7
:1002600020E030E0A901C301B2010E947010812C8E
:10027000912C20E8A22E2FE3B22E212C312C8823A2
:1002800009F488C049865A866B867C8620E030E077
:1002900040E251E4C501B4010E9486106B017C016B
:1002A000D301C2018C199D09AE09BF09B7FF07C070
:1002B000B095A095909581959F4FAF4FBF4F0297F6
:1002C000A105B10534F43FEF231A330A4601570163
:1002D000DDCFA3019201C701B6010E94701087FD16
:1002E000F2CFC984DA84EB84FC84C818D908EA0800
:1002F000FB084FEFC41AD40AE40AF40A53E0C51607
:10030000D104E104F10408F443C000E010E0A301CB
:100310009201C501B4010E9475101816DCF584ED38
:1003200028168EEF3806CCF401151105B1F420E043
:1003300030E040E85AE5C301B2010E9486102B016B
:100340003C0120E030E040E85AE5C501B4010E94DC
:1003500086104B015C0101E010E020E030E040E25B
:1003600051E4C501B4010E9482104B015C0191E08F
:10037000291A3108D301C20188199909AA09BB09B0
:100380000196A11DB11D0397A105B10508F0BFCFCE
:1003900024013501EA8D0E2E000CFF0BEA8FFB8F36
:1003A000CF010E94161088A32B813C8137FD03C02A
:1003B00029873A8704C046E050E049875A8758A108
:1003C000573649F48B819C81892B41F4E1E0F0E0C0
:1003D000E987FA8703C048A1498B10C02CEF221689
:1003E0002FEF32060CF456C229853A8522163306C1
:1003F0000CF050C237FE51C256E6598B89859A855A
:10040000019689879A879989963699F437FE08C0AC
:10041000812C912C90E8A92E9FE3B92E212C312C10
:10042000E8A1E73631F029853A85220D331D298769
:100430003A8788A69FA2AB82BF86730162011E8A9B
:100440001F8A8E899F89E985FA858E179F07E4F5B3
:1004500028A53FA14B815F85C701B6010E9482108C
:100460000E947F076C8F7D8F8E8F9F8F0E94481018
:100470006BA38701760117FB109517F9109528A536
:100480003FA14B815F856C8D7D8D8E8D9F8D0E94F0
:100490004E066B017C01F7FAF094F7F8F09420E037
:1004A00030E040E251E468A57FA18B819F850E94E6
:1004B000821068A77FA38B839F874E895F894F5FD8
:1004C0005F4F4E8B5F8BBDCF20E030E040EA50E4C1
:1004D00068A57FA18B819F850E9486106B837C839A
:1004E0008D839E839B01AC01C701B6010E947010F1
:1004F00087FD0DC02B813C814D815E81C701B60116
:100500000E947010811107C0FBA1F0FD04C01B8286
:100510001C821D821E82A30192016B817C818D81D0
:100520009E810E9442102B013C0120E030E040E21D
:1005300051E4C501B4010E9486106B837F87D82ED9
:10054000C92E9B01482F592FC301B2010E9475107B
:1005500087FD11C02FEF221A320A3989363679F415
:1005600049855A854F5F5F4F49875A875B815FA3F3
:100570008F8588A70BC08B829F86DA2CCB2C99891C
:10058000953631F0EB81EFA3FF85F8A7410106C056
:100590002B812FA33F8538A7812C912CAA88BB885B
:1005A000E12CF12C1E8A1F8A1F86188A4D855E85D4
:1005B000407155274BA35CA3EF85F88929853A85BF
:1005C000E217F30734F04E895F89452B09F4A0C088
:1005D000ACC08501E88DF98D808591850597A816B9
:1005E000B90688F72FA138A54D2D5C2DC301B201A6
:1005F0000E9482100E947F076C8F7D8F8E8F9F8F4D
:100600000E9448106A30710514F069E070E08BA117
:100610009CA1892B69F46115710551F498A1973655
:1006200039F497FE05C0F7013196EB83FC8341C096
:100630002E893F89232BA1F497FE12C03FEFA31A06
:10064000B30AE981FA81E00FF11F4EE240838F8106
:10065000988501978F839887E1E0F0E0EE8BFF8B20
:10066000E981FA81EA0DFB1DEB82FC828B819C8182
:10067000892B49F020E321934B815C814150510942
:100680004B835C83F3CFC7018A0D9B1D2F81388577
:100690002E193F095C01EFEFAE1ABE0AE981FA811B
:1006A000E80FF91F605D6083A901415051094F8334
:1006B00058878301720117FB109517F910952FA128
:1006C00038A54D2D5C2D6C8D7D8D8E8D9F8D0E945E
:1006D0004E062B013C0177FA709477F8709420E075
:1006E00030E040E251E46FA178A58D2D9C2D0E9451
:1006F00082106FA378A7D82EC92E51E0851A9108D1
:100700008F85988901968F87988BEB80FC8054CFDA
:10071000FD85F4FF0AC0E981FA81EA0DFB1D8EE236
:10072000808395012F5F3F4F590149815A814A0DBE
:100730005B1D4B835C83FA011082F989F53609F061
:1007400060C0E981FA812DA13EA1E20FF31F31972C
:10075000108237FE06C031942194310801E010E088
:1007600002C000E010E0EDA1FEA1319749815A815D
:10077000E40FF51F22E030E08AE0E82EF12CCF01F3
:1007800049815A81841B950B2114310479F0C101F0
:10079000B7010E94550F805D82931B0121503109E2
:1007A0008F81988501978F839887E9CF121613065A
:1007B00074F3FC013197E40FF51F012B11F42BE2C8
:1007C00001C02DE22083029769817A81680F791F29
:1007D0002A8D3B8D215431092A31310510F025E64F
:1007E00001C025E4FB0120832F8138852250310987
:1007F0002F833887A816B90624F48B819C810E9428
:100800000E103D8531FF2EC030FD2CC04F81588524
:10081000141615063CF589819A810E94AF0FE98173
:10082000FA818E0F9F1F9C0149815A81241B350B31
:10083000EA89FB892E173F074CF0FC012081EF81EC
:10084000F885E80FF91F20830197EDCF4F81588578
:1008500060E370E089819A818E0F9F1F0E940510CE
:100860001C8A1D8A89819A810E94AF0F0D851E8581
:100870002C893D89AC0169817A8189A19AA10E9464
:10088000060CA896E2E10C943D0F5D8553FF9FCCCA
:1008900080E28FCC35E6398BCCCD46E6498BC9CD8D
:1008A000AEE0B0E0E6E5F4E00C94F70E4C016B012D
:1008B00019821A828FEF9FEF8B839C831D821E8289
:1008C0004F83588729873A87A12CB12CD6016D9088
:1008D0007C90F301EA0DFB1D808181110FC0D601D0
:1008E000ED93FC938081853209F0D3C13F01BFEFC6
:1008F0006B1A7B0AF6016082718219C0853279F326
:10090000B401082E000C990B0E94120A4FEFA41A92
:10091000B40ADCCF8C32ACF08D32F9F489819A8143
:10092000816089839A833196D601ED93FC93D60139
:10093000ED91FC9180818B3269F789819A81846085
:10094000F0CF803221F489819A818860EACF8332A6
:1009500051F489819A818061E4CF803321F48981C7
:100960009A818260DECFB701C6010E94CE0C8D83D2
:100970009E8397FF0BC029813A81B1E02B27298301
:100980003A839195819591098D839E8389819A817E
:1009900080FF03C08D7F89839A83D601ED91FC91FE
:1009A000119780818E3249F43196ED93FC93B70113
:1009B000C6010E94CE0C8B839C83C6010E94600EF0
:1009C000582ED601ED91FC918081082E000C990BD8
:1009D0000E941610893609F443C084F4833609F462
:1009E00002C134F4853209F427C18136E1F030C107
:1009F0008436B1F188360CF4D9C02AC1803709F4A5
:100A00009AC03CF48E3609F4BCC08F3609F461C03C
:100A10001FC1853709F440C0883709F476C0833791
:100A200009F016C1F3C0652D70E0A701CE010B9649
:100A30000E94800E892B09F426C1D601ED91FC910C
:100A40001197CF0101968D939C932081AE01455F54
:100A50005F4FBE016F5F7F4FC4010E94000010C155
:100A6000652D70E0970141E050E0CE010B960E94A9
:100A70000000892B09F407C1F6018081918101965C
:100A800080839183AE01455F5F4FBE016F5F7F4FF3
:100A9000C4010E940000F4C0652D70E0970140E0A1
:100AA00050E0CE010B960E940000892B09F4EBC0A8
:100AB000D6018D919C91119701968D939C93AE01D7
:100AC000455F5F4FBE016F5F7F4FC4010E94000012
:100AD000D7C0652D70E0970140E050E0CE010B9645
:100AE0000E940000892B09F4CEC0F601808191811B
:100AF000019680839183AE01455F5F4FBE016F5FBA
:100B00007F4FC4010E940000BBC0652D70E09701BB
:100B100040E050E0CE010B960E940000892B09F4C2
:100B2000B2C0D601ED91FC911197CF0101968D9342
:100B30009C9320811CC0970140E050E060EF70E082
:100B4000CE010B960E940000892B09F49CC0F6018F
:100B5000808191810196808391838B859C85892BEF
:100B600029F420E030E04CE950E684C028E7AE01EB
:100B7000455F5F4FBE016F5F7F4FC4010E94000061
:100B80007FC0A501400F511F652D70E09701CE0178
:100B90000B960E940000892B09F475C0D6018D9137
:100BA0009C91119701968D939C9373C0652D70E075
:100BB000A701CE010B960E94800E892B09F463C019
:100BC000D601ED91FC911197CF0101968D939C93E5
:100BD0002081AE01455F5F4FBE016F5F7F4FC40153
:100BE0000E9498004DC0B0E85B124DC0F6018081B4
:100BF0009181019680839183D701ED91FC911197AA
:100C0000CF0102968D939C93808120C0B0E85B1247
:100C10003AC0F60180819181019680839183D7014A
:100C2000ED91FC911197CF0102968D939C93408199
:100C3000518120E030E01EC0B0E85B1224C0F60114
:100C4000208131812F5F3F4F208331838B870DC0FF
:100C500085E28B87D6016D927C9219821A821D8261
:100C60001E828FEF9FEF8B839C8321E030E0AE01EB
:100C7000455F5F4FBE016F5F7F4FC4010E94AA0DA9
:100C80008A0D9B1D07C0F6018081918101968083AA
:0C0C90009183C5012E96EFE00C94400FFC
:100C9C00A5E1B0E0E4E5F6E00C94F40E4701580150
:100CAC000E9486102B013C01A80197010E94421062
:100CBC00162FC72ED82EF92E862F9C2DAD2DBF2D7D
:100CCC0089839A83AB83BC83AA81FB81EC81ED8001
:100CDC003E802F8008850D8B5E2F5F71212F3A2F60
:100CEC004F2F60E070E080E090E021153105410568
:100CFC0000E15007610571058105910509F05EC0A1
:100D0C005E2F6E2D732D822D9D8904E30E94A20E01
:100D1C002D873E874F87588B698B7A8B8B8B9C8B5F
:100D2C008D859E8597708F3F974009F447C0A3012E
:100D3C009201612F7C2D8D2D9F2D0E9441109B01C6
:100D4C00AC01C501B4010E9470108823B9F1498629
:100D5C005A866B867C8629853A854B855C85C501D0
:100D6C00B4010E944210B62E872E982EA92E262F43
:100D7C00372F482F592F612F7C2D8D2D9F2D0E94A1
:100D8C007010811118C02B2D8B2D982DA92DBA2DDB
:100D9C0089839A83AB83BC833A814B815C816E2DB2
:100DAC00732D822D9D89A1E00E94EE0F122FC32E70
:100DBC00D42EF52E03C01B2D6401FA2C612F7C2D33
:0C0DCC008D2D9F2D6596E2E10C943D0FEB
:100DD80080919360909194609C01329522952F7038
:100DE80023273F7023272093C4604FE0489F90013A
:100DF800499F300D112436952795329522952F70ED
:100E080023273F702327A9E1B4E00E94A00F9695FD
:100E180087958093C3600E94E20F9091C3609F30D2
:100E2800B9F04091C46080E0E82FF0E0E359FF4951
:100E3800E081F0E09F01220F331FE20FF31FEE5F06
:100E4800FF491082118242838F5F981768F732C07A
:100E58008091A6609091A760A091A860B091A960C8
:100E68000196A11DB11D8F309105A105B10548F16D
:100E78001092A6601092A7601092A8601092A960C4
:100E88008091C2608F5F873018F48093C26021C060
:100E98001092C2601EC0ED91F0E0CF01880F991F3B
:100EA800E80FF91FEE5FFF49608351834283A21761
:100EB800B30789F760E170E082E090E60E941C0EBB
:100EC80008958093A6609093A760A093A860B093BC
:100ED800A9608091C26090E0FC01EE0FFF1FE80F4F
:100EE800F91FE85BFF49608151814281ADE6B0E6B8
:060EF8002DE730E6D0CF2B
:100EFE004F925F926F927F928F929F92AF92BF921C
:100F0E00CF92DF92EF92FF92CF93DF93CDB7DEB702
:100F1E002897CDBFDEBF6B017C01DC01CB0147E121
:100F2E00B695A795979587954A95D1F799278F5797
:100F3E009109873191059CF597FD36C088248A94D6
:100F4E00982C3FE7A32EB12C04C0B594A794979488
:100F5E0087948A95D2F7D501C4018C219D21AE21AB
:100F6E00BF21892B8A2B8B2BD1F020E030E040E87B
:100F7E005BE7C701B6010E9442106D837E838F83AB
:100F8E009887F7FE04C0C80CD91CEA1CFB1C809481
:100F9E009094A094B094C820D920EA20FB205C2D18
:100FAE004D2D3E2D2F2D21C020E030E040E85BE797
:100FBE00C701B6010E94421069837A838B839C839A
:100FCE00F7FE0FC0D701C601880F991FAA1FBB1FBE
:100FDE00892B8A2B8B2B19F350E040E030E82FEB56
:100FEE0004C050E040E030E020E0652F742F832FE6
:100FFE00922F2896CDBFDEBFDF91CF91FF90EF905D
:10100E00DF90CF90BF90AF909F908F907F906F901A
:06101E005F904F90089561
:10102400CF93DF9380E094E0FC011082C0E4D4E02D
:101034001882A0E6B4E020E92C9340EA54E0FA01D7
:101044001082FC0114821C8220E114962C931497C4
:10105400FA011482FC01108A118A128A138A148AF2
:10106400158A168A178A188A198A1A8A1B8A1C8A68
:101074001D8A1E8A1F8A50961C92509751961C9264
:10108400519752961C92529753961C92539754968A
:101094001C92549755961C92559756961C925697A7
:1010A40057961C92FA01108A118A128A84E0838B63
:1010B400148A158A168A178AE0EEF5E011821082E6
:1010C4001582178210861186168283E0828381E955
:1010D40090E18093B4609093B56082E990E180934D
:1010E400B2609093B36083E990E18093B060909391
:1010F400B16084E990E18093AE609093AF60DF913A
:04110400CF910895EA
:1011080010C00E942C1058F00E94251040F029F4BD
:101118005F3F29F00C945B1051110C9434100C941F
:101128008A100E943E0E68F39923B1F3552391F378
:10113800951B550BBB27AA2762177307840738F03E
:101148009F5F5F4F220F331F441FAA1FA9F335D09B
:101158000E2E3AF0E0E832D091505040E695001C4F
:10116800CAF72BD0FE2F29D0660F771F881FBB1F09
:10117800261737074807AB07B0E809F0BB0B802DE7
:10118800BF01FF2793585F4F3AF09E3F510578F013
:101198000C945B100C9434105F3FE4F3983ED4F346
:1011A800869577956795B795F7959F5FC9F7880FE7
:1011B800911D9695879597F90895E1E0660F771F39
:1011C800881FBB1F621773078407BA0720F0621BCA
:0E11D800730B840BBA0BEE1F88F7E095089599
:1011E6000FC00E94251038F00E942C1020F0952385
:1011F60011F00C945B100C948A1011240C9434108A
:101206000E943E0E70F3959FC1F3950F50E0551F57
:10121600629FF001729FBB27F00DB11D639FAA2745
:10122600F00DB11DAA1F649F6627B00DA11D661F94
:10123600829F2227B00DA11D621F739FB00DA11DB5
:10124600621F839FA00D611D221F749F3327A00D6F
:10125600611D231F849F600D211D822F762F6A2F0B
:1012660011249F5750409AF0F1F088234AF0EE0F70
:10127600FF1FBB1F661F771F881F91505040A9F79D
:101286009E3F510580F00C945B100C9434105F3F28
:10129600E4F3983ED4F3869577956795B795F795D9
:1012A600E7959F5FC1F7FE2B880F911D9695879551
:0412B60097F9089507
:1012BA0011C00E94251038F00E942C1020F039F439
:1012CA009F3F19F426F40C948A100EF4E095E7FB7C
:1012DA000C945B10E92F0E943E0E58F3BA1762076E
:1012EA0073078407950720F079F4A6F50C94331058
:1012FA000EF4E0950B2EBA2FA02D0B01B901900127
:10130A000C01CA01A0011124FF27591B99F0593F6A
:10131A0050F4503E68F11A16F040A22F232F342FB2
:10132A004427585FF3CF469537952795A795F04000
:10133A005395C9F77EF41F16BA0B620B730B840B15
:10134A00BAF09150A1F0FF0FBB1F661F771F881FCD
:10135A00C2F70EC0BA0F621F731F841F48F4879525
:10136A0077956795B795F7959E3F08F0B0CF939517
:0E137A00880F08F09927EE0F97958795089534
:1013880040E068ED80E690E00E947E1040E068ED65
:1013980081E690E00E947E1040E068ED85E690E0EE
:1013A8000E947E1040E068ED88E790E00E947E1081
:1013B8004CE068ED88E690E00E947E1040E068ED21
:1013C80089E690E00E947E1040E068ED80E790E0BA
:1013D8000E947E1040E068ED8CE790E00E947E104D
:1013E80040E068ED82E690E00E947E1040E068ED03
:1013F80083E690E00E947E1040E068ED84E690E08D
:101408000E947E1040E068ED80E890E00E947E1027
:0C141800E0E6F0E0858181FFFDCF089543
:101424000F931F93CF93DF93DB012D913C91119781
:1014340030FF25C016964D915C91179714962D9107
:101444003C9115974217530778F41296ED91FC914D
:101454001397808312962D913C9113972F5F3F4FE2
:1014640012962D933C93139716962D913C911797B2
:101474002F5F3F4F16962D933C93179715C01C96DC
:10148400ED91FC911D97309719F48FEF9FEF0CC0ED
:101494008B01EC010995892BC1F7F80186819781AD
:1014A400019686839783CE01DF91CF911F910F918F
:0214B400089599
:1014B6000E94BD0F0E94A20A0E94590B83E10E945E
:1014C6004F10CDE8D0E60E947A108823E1F30E94FF
:1014D6006110A0E0B0E088839983AA83BB836894F7
:1014E60013F8B695A795979587951694D1F78E8399
:1014F6009F83BC0180E090E00E94E00A20E030E09B
:1015060048EC52E40E94861020E030E04AE755E4B9
:101516000E9482106093A2607093A3608093A4607F
:101526009093A5600E94EC066091A2607091A36002
:0E1536008091A4609091A5600E943F0CC4CFEC
:10154400E2E0F0E6A8E4B0E68C91808311968C91F9
:101554001197818312968C918283A5E0B0E642E3D1
:1015640050E681E018C0E82FF0E09F01220F331FFE
:10157400E20FF31FE85BFF4990819C9391811196E0
:101584009C931197928112969C9312978F5F873048
:1015940008F080E013964A175B0729F760E170E0D2
:1015A40082E090E60E941C0E2FEF84E39CE0215021
:0C15B40080409040E1F700C00000089566
:1015C000E89409C097FB3EF49095809570956195DD
:1015D0007F4F8F4F9F4F9923A9F0F92F96E9BB2793
:1015E0009395F695879577956795B795F111F8CF0F
:1015F000FAF4BB0F11F460FF1BC06F5F7F4F8F4F7A
:101600009F4F16C0882311F096E911C0772321F06F
:101610009EE8872F762F05C0662371F096E8862F07
:1016200070E060E02AF09A95660F771F881FDAF75E
:0A163000880F9695879597F90895A5
:10163A00A2E8B0E0E3E2FBE00C94FA0E5C014A0196
:10164A00CF57DF4F68837983C158D040C12CD12C42
:10165A00CF57DF4FE881F981C158D0408081882374
:10166A00E9F07401860120E830E0AE014F5F5F4F78
:10167A00BE016F577F4FC5010E9450048C0D9D1DFE
:10168A008C159D054CF48FE490E080930060909354
:10169A0001608FEF9FEF03C06C01DACFC601CE570E
:0816AA00DF4FECE00C94430F4C
:1016B2001F93CF93DF93C2E0D0E618821FE0198315
:1016C2001A82688179818A8140E150E00E94D40DBA
:1016D2002FE78AE196E0215080409040E1F700C078
:1016E2000000188319821A82688179818A8140E117
:1016F20050E00E94D40D2FE78AE196E0215080400D
:101702009040E1F700C00000188319831A836881B2
:1017120079818A8140E150E00E94D40DDF91CF911E
:041722001F91089576
:10172600A0E1B0E0E9E9FBE00C94000FFB01BA018F
:10173600AE014F5F5F4F7A0140E1D7011D924A9596
:10174600E9F742E051E049835A838B839C83F7FF94
:1017560009C08FE490E080930060909301608FEF62
:101766009FEF14C0A9018C013197ED83FE83C70159
:101776000E94250F4F8158852D813E8142175307C0
:1017860008F49A01F801E20FF31F10826096E6E072
:041796000C94490F57
:10179A001F920F920FB60F9211242F933F934F93DC
:1017AA005F936F937F938F939F93AF93BF93EF93BF
:1017BA00FF937D9B05C0E091B460F091B5600995F7
:1017CA007C9B05C0E091B260F091B36009957F9B64
:1017DA0005C0E091AE60F091AF6009958FEF8FB9C7
:1017EA00FF91EF91BF91AF919F918F917F916F91EF
:1017FA005F914F913F912F910F900FBE0F901F90C5
:02180A0018952F
:10180C00A0E0B0E0ECE0FCE00C94FA0E6C015B01A3
:10181C007A01E901480181E08822992400FD03C086
:10182C004217530750F0A701B501C6010E94BE0E26
:10183C00EC16FD0610F0C70117C08E010E191F091A
:10184C000115110541F0B60180E290E00E94120AE8
:10185C0001501109F5CF8114910429F4A701B501A8
:10186C00C6010E94BE0ECE01CDB7DEB7ECE00C94E3
:02187C00430F18
:10187E000F931F93CF93DF93CDB7DEB7E297CDBF14
:10188E00DEBF9F938F937F936F938CE191E89F932D
:10189E008F938E010F5F1F4F1F930F930E947D0F2B
:1018AE0082E291E89F938F930E940D0F1F930F93E7
:1018BE000E940D0F8DE291E89F938F930E940D0F62
:1018CE00CDBFDEBFE296CDBFDEBFDF91CF911F91C0
:0418DE000F910895C9
:1018E2000E94460E88F09F5798F0B92F9927B7515A
:1018F200B0F0E1F0660F771F881F991F1AF0BA95B2
:10190200C9F714C0B13091F00E943310B1E00895CC
:101912000C943310672F782F8827B85F39F0B93FBE
:10192200CCF3869577956795B395D9F73EF4909564
:0E1932008095709561957F4F8F4F9F4F089560
:10194000E0E0F8E083E896E080879187158280ECFC
:10195000868383E08783138614861686158685E939
:1019600090E18093BA609093BB6086E990E18093A8
:10197000B8609093B96087E990E18093B6609093E6
:10198000B7601092BC601092BD60E091BE60F091B3
:0C199000BF608DE590E680839183089590
:10199C00DC01ED91FC91119780818A3221F080E07D
:1019AC0090E03AE00EC03196ED93FC93DB01ED91A3
:1019BC00FC911197CF0102968D939C93808191811C
:1019CC000895ED91FC911197208120532A3068F4F1
:1019DC00389FA001399F500D1124CA01820F911D0F
:0C19EC003196ED93FC931197ECCF089519
:1019F8001F920F920FB60F9211242F933F934F937C
:101A08005F936F937F938F939F93AF93BF93EF935E
:101A1800FF9382E080930D06E091AC60F091AD6099
:101A2800309709F00995FF91EF91BF91AF919F9180
:101A38008F917F916F915F914F913F912F910F906F
:081A48000FBE0F901F901895CE
:101A50001F920F920FB60F9211242F933F934F9323
:101A60005F936F937F938F939F93AF93BF93EF9306
:101A7000FF9381E080930D06E091AA60F091AB6046
:101A8000309709F00995FF91EF91BF91AF919F9128
:101A90008F917F916F915F914F913F912F910F9017
:081AA0000FBE0F901F90189576
:101AA8001F920F920FB60F9211242F933F934F93CB
:101AB8005F936F937F938F939F93AF93BF93EF93AE
:101AC800FF93BB9B05C0E091B060F091B1600995B0
:101AD8008FEF87BBFF91EF91BF91AF919F918F914E
:101AE8007F916F915F914F913F912F910F900FBE12
:061AF8000F901F901895ED
:101AFE00CF93DF9300D00F92CDB7DEB769837A8391
:101B0E008B83DE0111969E012C5F3F4F13C08C918B
:101B1E0088232CF46F9A00C000006F9802C06F9A51
:101B2E006F988081880F8083915089F71196A21744
:101B3E00B30719F098E0FD01EACF2396CDBFDEBFC3
:061B4E00DF91CF91089524
:101B5400A0E0B0E0E0EBFDE00C94FC0E7C01FB01A6
:101B6400EA01C901A280B380C480D58000811181BB
:101B7400209711F4C5E9D0E6009719F4CE010E942C
:101B8400AF0FB7FC04C0A816B90608F4C501960146
:101B9400AC01BE01C7010E94060CCDB7DEB7EAE076
:041BA4000C94450F49
:101BA800CF92DF92EF920F931F93CF93DF9341155C
:101BB800510569F08A016B01E82EC0E0D0E08E2D56
:101BC800B6010E947F0D21960C171D07C1F76F986B
:101BD80082E48A95F1F700C0DF91CF911F910F91B0
:081BE800EF90DF90CF9008950B
:101BF000990F0008550FAA0BE0E8FEEF161617061E
:101C0000E807F907C0F012161306E407F50798F085
:101C1000621B730B840B950B39F40A2661F0232B9E
:101C2000242B252B21F408950A2609F4A140A6951A
:081C30008FEF811D811D089555
:101C38000F931F93CF93DF936115710589F0EC0122
:101C48008B01000F111F600F711F8C01060F171FEA
:101C58006991799189910E947F0DC017D107C1F7C9
:101C68006F9882E48A95F1F700C0DF91CF911F91B8
:041C78000F9108952B
:101C7C0057FD9058440F551F59F05F3F71F0479531
:101C8C00880F97FB991F61F09F3F79F08795089516
:101C9C00121613061406551FF2CF4695F1DF08C035
:101CAC00161617061806991FF1CF86957105610552
:041CBC0008940895EB
:101CC000CF93DF93EC0190E0E92FF0E0EE0FFF1FE0
:101CD000EE5CFF498081811102C081810EC0A88124
:101CE000B9812C91821305C091811196A883B98383
:101CF00001C09F5F9B3040F3892FDF91CF91089502
:101D0000FA0160387105CCF0623871051CF0633857
:101D1000710599F4A081B1819D012C5F3F4F208313
:101D200031834D915D916D917C91FC014083518394
:101D30006283738381E090E0089580E090E00895ED
:101D400097FB10F8169400080F93083098F008508D
:101D5000232F342F452F562F672F782F892F902D23
:101D6000F4CF0594979587957795679557954795FF
:0C1D7000379527950A95AAF70F91089562
:101D7C00A0E0B0E0E4ECFEE00C94FE0E6C01EB0194
:101D8C008A017B01E40EF51ECE15DF0541F0899129
:101D9C00B601082E000C990B0E94120AF5CFC8014F
:0A1DAC00CDB7DEB7E8E00C94470F56
:101DB600E0E0F6E084E0818381E08283138214828E
:101DC60016861386148693E19087818715828FEF96
:101DD6009FE0848B958B128A138A83E0808380E050
:021DE60008955E
:101DE8002F923F924F925F926F927F928F929F9223
:101DF800AF92BF92CF92DF92EF92FF920F931F9311
:101E0800CF93DF93CDB7DEB7CA1BDB0BCDBFDEBFE9
:021E180009942B
:101E1A00A0E0B0E0E3E1FFE00C94040FAE014B5FF9
:101E2A005F4FFA0161917191AF01E091BE60F0914B
:101E3A00BF60808191810E94250FE2E00C944D0FD2
:101E4A00A2E0B0E0EBE2FFE00C94020F8C014983C0
:101E5A005A83AE014F5F5F4F0E941D0BF80120812C
:101E6A0024FF02C08FEF9FEF2296E4E00C944B0F01
:101E7A002A88398848885F846E847D848C849B8410
:101E8A00AA84B984C884DF80EE80FD800C811B811E
:101E9A00AA81B981CE0FD11DCDBFDEBFED01089554
:101EAA0097FB072E16F4009407D077FD09D00E94FD
:101EBA00690F07FC05D03EF4909581959F4F0895D0
:081ECA00709561957F4F0895AA
:101ED200AA1BBB1B51E107C0AA1FBB1FA617B7074E
:101EE20010F0A61BB70B881F991F5A95A9F780956A
:081EF2009095BC01CD0108959B
:101EFA00A0E0B0E0E3E8FFE00C94040FAE01475F16
:101F0A005F4F6F8178858D819E810E943A10E2E051
:041F1A000C944D0FC7
:101F1E00092E0394000C11F4882352F0BB0F40F4E9
:101F2E00BF2B11F460FF04C06F5F7F4F8F4F9F4F29
:021F3E00089504
:101F4000A29FB001B39FC001A39F700D811D1124FA
:0E1F5000911DB29F700D811D1124911D0895E9
:101F5E00FC01AF014F5F5F4F2081222311F0FA0188
:0C1F6E00F8CF9F01281B390BC901089512
:101F7A000E9412080E94DB0E0E94C4090E94A00C53
:0A1F8A000E941E100E94CA0F089565
:101F940040E068ED80E191E00E947E10E0E1F1E034
:081FA4001282138280E008950F
:101FAC00CF93C82F0E9455108823E1F3C0930208E9
:081FBC0080E090E0CF91089550
:101FC400E2E0F0E682E390E6108212821182339618
:081FD400E817F907C9F70895A9
:101FDC000024A7FD00942A0F301D401D501D601DCC
:081FEC00701D801D901D089579
:101FF400EC010E9499100E949810CE010E949A1040
:06200400CE010E948F10C6
:10200A00FC01480F591FE417F50711F06193FBCF44
:02201A00089527
:10201C00FC01DB012D91BD0121932111FACF089513
:10202C009C01215431092A31310508F4806208954C
:0E203C00E0EBF0E014821082128280E0089542
:0E204A0000240A9416161706180609060895B3
:0E20580000240A9412161306140605060895B5
:0E206600E894BB2766277727CB0197F90895EA
:0E2074009A01AB016FEF7FE70E94930B089576
:0E2082005058BB27AA270E945D090C948F0FAF
:0E2090000E94710C6894B1110C9434100895E4
:0C209E00E0E0F6E0808781E08287089592
:0C20AA008091040885FB882780F90895C8
:0C20B60097F99F6780E870E060E00895F3
:0A20C2008091100690911106089518
:0A20CC008F938FEF83B98F91189561
:0A20D6008F938FEF8BB98F9118954F
:0A20E0000E94F80D08F481E0089555
:0A20EA000E94F80D08F48FEF08952E
:0820F40080910D068170089532
:0820FC00FC0164BF408308955C
:082104000E9484080C948F0F67
:08210C000E94F3080C948F0FF0
:062114009FEF80EC08952E
:04211A000C94000021
:04211E000E948C008F
:0221220008951E
:0221240008951C
:0221260008951A
:02212800089518
:02212A00089516
:02212C00089514
:02212E00089512
:02213000089510
:0221320008950E
:0221340008950C
:1021360068076C094C836A9074A07AC0008068882E
:0621460000846C820081A0
:10214C0000000F000F000F00000F0F00000F0F0F0B
:05215C00000F0F0F0F42
:10216100030000000000000000000000D60F000086
:1021710003020701060B00050A0F04090E080D0CE6
:10218100494E4600696E66004E414E006E616E001A
:07219100286E756C6C29003B
:06219800286E696C2900AD
:02219E00C0601F
:02000004008278
:090000000000000000D00800001F
:00000001FF
