:100000000C9457000C94F9110C94F9110C94F911FB
:100010000C94F9110C94F9110C94F9110C94F91138
:100020000C94D2110C94F9110C94F9110C94F9114F
:100030000C94F9110C94F9110C94F9110C94F91118
:100040000C94F9110C94F9110C94F9110C94F91108
:100050000C94F9110C94F9110C94F9110C94F911F8
:100060000C94C80D0C94F9110C94270F0C94FB0EF2
:100070000C94F9110C94D7110C94F9110C94F911FA
:100080000C94F9110C94F9110C94530F0C94F91170
:1000900060006032806032606800240E6068608CAE
:1000A00080608C608E002444608E609380001124F8
:1000B0001FBECFEFCDBFDFE7DEBFE0E9F0E040E0FD
:1000C00017C0B591A59135912591059107FD0CC0FB
:1000D00095918591EF01F92FE82F05900D92A217C8
:1000E000B307D9F7FE0104C01D92A217B307E1F7C9
:1000F000ED3AF40731F70E94170C0C946B11F89449
:02010000FFCF2F
:1001020068076C094C836A9074A07AC00080688882
:0601120000846C820081F4
:1001180025302E3266000A537472656E6774683A29
:040128000025250089
:10012C00494E4600696E66004E414E006E616E008F
:07013C00286E756C6C2900B0
:06014300286E696C290022
:10014A00A8E2B0E0EBEAF0E00C945A1089A39AA373
:10015A00688F798F2A8FFB010190F081E02DED875E
:10016A00FE87FB010280F381E02DEB83FC83FB0118
:10017A000480F581E02DEC8BFD8BFB010084F18579
:10018A00E02DEDA3FEA3FB010680F781E02DE983B4
:10019A00FA83FA01408051806280738020E030E067
:1001AA00A901C301B2010E94DC1187FF06C077FAD8
:1001BA00709477F870948DE204C0FD85F2FF75C3E0
:1001CA008BE2E981FA8180832C893D8921503109AA
:1001DA002F83388741E050E04A8B5B8B06C08C89BD
:1001EA009D898F8398871A8A1B8AD301C201BF7798
:1001FA000097E0E8AE07EFE7BE07E1F42A8D022E8A
:10020A00000C330B2154310989819A814A895B890F
:10021A00840F951F2A31310520F44CE251E060E049
:10022A0003C040E351E060E00E94141160E371E012
:10023A0080E01FC00197A048BF4738F12A8D022EDF
:10024A00000C330B2154310989819A814A895B89CF
:10025A00840F951F2A31310520F444E351E060E010
:10026A0003C048E351E060E00E94141168E371E0C2
:10027A0080E00E94A310E981FA81AF0160E8ED8471
:10028A00FE840C891D899C0108C320E030E0A90185
:10029A00C301B2010E94DC11812C912C20E8A22E0C
:1002AA002FE3B22E212C312C882309F488C04986E9
:1002BA005A866B867C8620E030E040E251E4C50134
:1002CA00B4010E94F2116B017C01D301C2018C19A5
:1002DA009D09AE09BF09B7FF07C0B095A0959095D3
:1002EA0081959F4FAF4FBF4F0297A105B10534F4D7
:1002FA00FFEF2F1A3F0A46015701DDCFA3019201F2
:10030A00C701B6010E94DC1187FDF2CFC984DA84E5
:10031A00EB84FC84C818D908EA08FB082FEFC21A34
:10032A00D20AE20AF20A33E0C316D104E104F10464
:10033A0008F443C000E010E0A3019201C501B40132
:10034A000E94E1111816DCF544ED24164EEF34062E
:10035A00CCF401151105B1F420E030E040E85AE58B
:10036A00C301B2010E94F2112B013C0120E030E0EE
:10037A0040E85AE5C501B4010E94F2114B015C0143
:10038A0001E010E020E030E040E251E4C501B401B0
:10039A000E94EE114B015C0151E0251A3108D3018C
:1003AA00C20188199909AA09BB090196A11DB11DA3
:1003BA000397A105B10508F0BFCF240135018A8D45
:1003CA00082E000C990B8A8F9B8F0E94891188A393
:1003DA00EB81FC81F7FD03C0E987FA8704C026E0B8
:1003EA0030E029873A8738A1373651F44B815C814E
:1003FA00452B09F05FC281E090E089879A875AC24B
:10040A0028A1298B04C037FE66C236E6398B498596
:10041A005A854F5F5F4F49875A875989563699F4EB
:10042A0037FE08C0812C912C90E8A92E9FE3B92EA3
:10043A00212C312C88A1873631F0E985FA85E20D25
:10044A00F31DE987FA8788A69FA2AB82BF8673014C
:10045A0062011E8A1F8A4E895F8989859A85481793
:10046A005907E4F528A53FA14B815F85C701B6016D
:10047A000E94EE110E940B086C8F7D8F8E8F9F8FCA
:10048A000E94B4116BA38701760117FB109517F927
:10049A00109528A53FA14B815F856C8D7D8D8E8D32
:1004AA009F8D0E94D9066B017C01F7FAF094F7F848
:1004BA00F09420E030E040E251E468A57FA18B810E
:1004CA009F850E94EE1168A77FA38B839F872E8941
:1004DA003F892F5F3F4F2E8B3F8BBDCF20E030E00F
:1004EA0040EA50E468A57FA18B819F850E94F211A2
:1004FA006B837C838D839E839B01AC01C701B6010C
:10050A000E94DC1187FD0DC02B813C814D815E81EB
:10051A00C701B6010E94DC11811107C09BA190FDA1
:10052A0004C01B821C821D821E82A30192016B8160
:10053A007C818D819E810E94AE112B013C0120E0BD
:10054A0030E040E251E4C501B4010E94F2116B832C
:10055A007F87D82EC92E9B01482F592FC301B2017C
:10056A000E94E11187FD11C0EFEF2E1A3E0AF989A8
:10057A00F63679F429853A852F5F3F4F29873A87DE
:10058A003B813FA34F8548A70BC08B829F86DA2CFD
:10059A00CB2C5989553631F08B818FA39F8598A72B
:1005AA00410106C0EB81EFA3FF85F8A7812C912CAE
:1005BA00AA88BB88E12CF12C1E8A1F8A1F86188AFA
:1005CA002D853E85207133272BA33CA32F8538899F
:1005DA0049855A852417350734F08E899F89892BD6
:1005EA0009F4A0C0ACC08501E88DF98D808591859C
:1005FA000597A816B90688F72FA138A54D2D5C2DA9
:10060A00C301B2010E94EE110E940B086C8F7D8F0C
:10061A008E8F9F8F0E94B4116A30710514F069E0C1
:10062A0070E04BA15CA1452B69F46115710551F489
:10063A0058A1573639F497FE05C0C70101968B8336
:10064A009C8341C0EE89FF89EF2BA9F497FE13C062
:10065A00FFEFAF1ABF0AE981FA81E00FF11F2EE21C
:10066A0020834F815885415051094F83588781E033
:10067A0090E08E8B9F8BE981FA81EA0DFB1DEB825C
:10068A00FC824B815C81452B49F090E391932B814D
:10069A003C81215031092B833C83F3CFC7018A0D5A
:1006AA009B1D2F8138852E193F095C015FEFA51A22
:1006BA00B50AE981FA81E80FF91F605D6083C90113
:1006CA0001978F8398878301720117FB109517F999
:1006DA0010952FA138A54D2D5C2D6C8D7D8D8E8D9D
:1006EA009F8D0E94D9062B013C0177FA709477F806
:1006FA00709420E030E040E251E46FA178A58D2D9E
:10070A009C2D0E94EE116FA378A7D82EC92E91E0D6
:10071A00891A9108EF85F8893196EF87F88BEB8073
:10072A00FC8054CFFD85F4FF0AC0E981FA81EA0D05
:10073A00FB1D8EE2808395012F5F3F4F590149814E
:10074A005A814A0D5B1D4B835C83FA011082F98939
:10075A00F53609F061C0E981FA812DA13EA1E20FC7
:10076A00F31F3197108237FE06C031942194310865
:10077A0001E010E002C000E010E0EDA1FEA1319717
:10078A0049815A81E40FF51F22E030E08AE0E82E21
:10079A00F12CCF0149815A81841B950B2114310414
:1007AA0079F0C101B7010E94B910805D82931B01E3
:1007BA00215031098F81988501978F839887E9CFD6
:1007CA001216130674F3FC013197E40FF51F012B7F
:1007DA0011F42BE201C02DE220830297E981FA810C
:1007EA00E80FF91F2A8D3B8D215431092A31310531
:1007FA0010F025E601C025E420832F813885225098
:10080A0031092F833887A816B90634F4AF0160E896
:10081A008B819C810E94141149815A813A0180E896
:10082A00882E9D8591FF2EC090FD2CC0EF81F88502
:10083A001E161F063CF5882DB3010E94A3102981BC
:10084A003A81820F931F9C0149815A81241B350BDF
:10085A00EA89FB892E173F074CF0FC012081EF81C2
:10086A00F885E80FF91F20830197EDCF4F8158854E
:10087A0060E370E089819A818E0F9F1F0E94801128
:10088A001C8A1D8A882DB3010E94A310ED84FE8460
:10089A000C891D899C01682DA30189A19AA10E9436
:1008AA00390BA896E2E10C948B105D8553FF97CC27
:1008BA0080E287CC2CEF22162FEF32064CF0E98526
:1008CA00FA852E163F060CF49ECDF5E6F98BBBCDC4
:0C08DA0035E6398BB8CD46E6498BB5CD2C
:1008E6002F923F924F926F927F928F929F92AF92EA
:1008F600BF92CF92DF92EF92FF920F931F93CF9307
:10090600DF93CDB7DEB72E97CDBFDEBF4C016B01AF
:10091600380119821A828FEF9FEF8B839C831D8289
:100926001E824F83588729873A87A12CB12CD6017E
:100936002D913D914C912A0D3B1D411DB7FC4A95C9
:10094600F901849147FD8081811116C0F60120834B
:1009560031834283F901849147FD8081853209F014
:100966000FC21901442EFFEF2F1A3F0A4F0AD60174
:100976002D923D924C921BC0853241F3B401082E54
:10098600000C990B0E94CE0B4FEFA41AB40ACFCFDE
:100996002C32DCF02D3229F529813A812160298318
:1009A6003A830196A11DF60180839183A283F60105
:1009B60080819181A281FC012491A7FD20812B32A7
:1009C60039F729813A812460EACF203221F429813E
:1009D6003A812860E4CF233251F429813A8120619B
:1009E600DECF203321F429813A812260D8CFB701A6
:1009F600C6010E94170D8D839E8397FF0BC0298128
:100A06003A81F1E02F2729833A83919581959109BF
:100A16008D839E8389819A8180FF03C08D7F898320
:100A26009A83F60180819181A281FC012491A7FD20
:100A360020812E3261F40196A11DF60180839183F7
:100A4600A283B701C6010E94170D8B839C83C60142
:100A56000E94500A182FD6012C9111968C9111974D
:100A660012969C91E22FF82F849197FD8081082E93
:100A7600000C990B0E948911893609F44AC084F446
:100A8600833609F419C134F4853209F445C1813637
:100A9600E1F050C18436E9F188360CF4E9C04AC168
:100AA600803709F4B0C03CF48E3609F4D6C08F36D0
:100AB60009F46DC03FC1853709F44AC0883709F487
:100AC60085C0833709F036C10DC1612F70E0A701DB
:100AD600CE010B960E94EA0F892B09F448C1F60154
:100AE60080819181A2819C014A2F2F5F3F4F4F4FFA
:100AF600208331834283FC012491A7FD2081AE012E
:100B0600455F5F4FBE016F5F7F4FC4010E940000CB
:100B16002BC1612F70E0970141E050E0CE010B96AA
:100B26000E940000892B09F422C1F601808191817F
:100B3600A2810196A11D80839183A283AE01455FA8
:100B46005F4FBE016F5F7F4FC4010E9400000CC162
:100B5600612F70E0970140E050E0CE010B960E94B5
:100B66000000892B09F403C1F60180819181A281DD
:100B76000196A11D80839183A283AE01455F5F4FDD
:100B8600BE016F5F7F4FC4010E940000EDC0612F60
:100B960070E0970140E050E0CE010B960E94000005
:100BA600892B09F4E4C0F60180819181A281019626
:100BB600A11D80839183A283AE01455F5F4FBE0175
:100BC6006F5F7F4FC4010E940000CEC0612F70E0AE
:100BD600970140E050E0CE010B960E940000892B61
:100BE60009F4C5C0F60180819181A2819C014A2F3A
:100BF6002F5F3F4F4F4F208331834283FC01249167
:100C0600A7FD208120C0970140E050E060EF70E032
:100C1600CE010B960E940000892B09F4A8C0F601AC
:100C260080819181A2810196A11D80839183A283F7
:100C36008B859C85892B31F400E010E023E431E0BC
:100C460040E08CC028E7AE01455F5F4FBE016F5F95
:100C56007F4FC4010E94000087C0A501460D571DA5
:100C6600612F70E09701CE010B960E9400007FC0B5
:100C7600612F70E0A701CE010B960E94EA0F892B27
:100C860009F475C0F60180819181A2819C014A2FE9
:100C96002F5F3F4F4F4F208331834283FC012491C6
:100CA600A7FD2081AE01455F5F4FBE016F5F7F4F9D
:100CB600C4010E94A50058C0103809F058C0F601BA
:100CC60080819181A2810196A11D80839183A28357
:100CD600D701ED91FC911197CF0102968D939C93CC
:100CE600808126C0103809F042C0F60180819181CA
:100CF600A2810196A11D80839183A283D701ED91E4
:100D0600FC911197CF0103968D939C93208131819D
:100D1600428100E010E022C0103849F5F60120813A
:100D2600318142812F5F3F4F4F4F20833183428372
:100D36008B870EC085E28B87F60120823182428244
:100D460019821A821D821E828FEF9FEF8B839C83EE
:100D56009E01255F3F4F40E801E010E0BE016F5F56
:100D66007F4FC4010E94DA0C8A0D9B1D0AC0F60152
:100D760080819181A2810196A11D80839183A283A6
:100D8600C5012E96CDBFDEBFDF91CF911F910F918A
:100D9600FF90EF90DF90CF90BF90AF909F908F9095
:0C0DA6007F906F904F903F902F90089529
:100DB200A5E1B0E0EFEDF6E00C945A1047015801BE
:100DC2000E94F2112B013C01A80197010E94AE1171
:100DD200162FC72ED82EF92E862F9C2DAD2DBF2D66
:100DE20089839A83AB83BC83AA81FB81EC81ED80EA
:100DF2003E802F8008850D8B5E2F5F71212F3A2F49
:100E02004F2F60E070E080E090E021153105410550
:100E120000E15007610571058105910509F05EC089
:100E22005E2F6E2D732D822D9D8904E30E940C107E
:100E32002D873E874F87588B698B7A8B8B8B9C8B48
:100E42008D859E8597708F3F974009F447C0A30117
:100E52009201612F7C2D8D2D9F2D0E94AD119B0142
:100E6200AC01C501B4010E94DC118823B9F14986A5
:100E72005A866B867C8629853A854B855C85C501B9
:100E8200B4010E94AE11B62E872E982EA92E262FBF
:100E9200372F482F592F612F7C2D8D2D9F2D0E948A
:100EA200DC11811118C02B2D8B2D982DA92DBA2D57
:100EB20089839A83AB83BC833A814B815C816E2D9B
:100EC200732D822D9D89A1E00E945F11122FC32EE6
:100ED200D42EF52E03C01B2D6401FA2C612F7C2D1C
:0C0EE2008D2D9F2D6596E2E10C948B1085
:100EEE0080916E6090916F609C01329522952F706B
:100EFE0023273F702327209392604FE0489F900155
:100F0E00499F300D112436952795329522952F70D5
:100F1E0023273F702327A9E1B4E00E94051196957F
:100F2E008795809391600E944711909191609F30B8
:100F3E00B9F04091926080E0E82FF0E0E85AFF4966
:100F4E00E081F0E09F01220F331FE20FF31FEE5FEF
:100F5E00FF491082118242838F5F981768F732C063
:100F6E008091746090917560A0917660B091776079
:100F7E000196A11DB11D8F309105A105B10550F14E
:100F8E001092746010927560109276601092776075
:100F9E00809190608F5F873018F48093906022C0AC
:100FAE00109290601FC0ED91F0E0CF01880F991F55
:100FBE00E80FF91FEE5FFF49608351834283A2174A
:100FCE00B30789F762E070E680E840E150E00E94E6
:100FDE006B0E08958093746090937560A093766005
:100FEE00B09377608091906090E0FC01EE0FFF1F50
:100FFE00E80FF91FEE5CFF49608151814281A8E53F
:08100E00B0E628E630E6CFCF82
:101016004F925F926F927F928F929F92AF92BF9202
:10102600CF92DF92EF92FF92CF93DF93CDB7DEB7E9
:101036002897CDBFDEBF6B017C01DC01CB0147E108
:10104600B695A795979587954A95D1F799278F577E
:101056009109873191059CF597FD36C088248A94BD
:10106600982C3FE7A32EB12C04C0B594A79497946F
:1010760087948A95D2F7D501C4018C219D21AE2192
:10108600BF21892B8A2B8B2BD1F020E030E040E862
:101096005BE7C701B6010E94AE116D837E838F8325
:1010A6009887F7FE04C0C80CD91CEA1CFB1C809468
:1010B6009094A094B094C820D920EA20FB205C2DFF
:1010C6004D2D3E2D2F2D21C020E030E040E85BE77E
:1010D600C701B6010E94AE1169837A838B839C8314
:1010E600F7FE0FC0D701C601880F991FAA1FBB1FA5
:1010F600892B8A2B8B2B19F350E040E030E82FEB3D
:1011060004C050E040E030E020E0652F742F832FCC
:10111600922F2896CDBFDEBFDF91CF91FF90EF9043
:10112600DF90CF90BF90AF909F908F907F906F9001
:061136005F904F90089548
:10113C00CF93DF9380E094E0FC011082C0E4D4E014
:10114C001882A0E6B4E020E92C9340EA54E0FA01BE
:10115C001082FC0114821C8220E114962C931497AB
:10116C00FA011482FC01108A118A128A138A148AD9
:10117C00158A168A178A188A198A1A8A1B8A1C8A4F
:10118C001D8A1E8A1F8A50961C92509751961C924B
:10119C00519752961C92529753961C925397549671
:1011AC001C92549755961C92559756961C9256978E
:1011BC0057961C92FA01108A118A128A84E0838B4A
:1011CC00148A158A168A178AE0EEF5E011821082CD
:1011DC001582178210861186168283E082838DEF2A
:1011EC0091E180938260909383608EEF91E1809384
:1011FC008060909381608FEF91E180937E609093FB
:10120C007F6080E092E180937C6090937D60DF91C1
:04121C00CF910895D1
:1012200010C00E949F1158F00E94981140F029F4BC
:101230005F3F29F00C94C71151110C94A7110C9425
:10124000F6110E94C80F68F39923B1F3552391F367
:10125000951B550BBB27AA2762177307840738F025
:101260009F5F5F4F220F331F441FAA1FA9F335D082
:101270000E2E3AF0E0E832D091505040E695001C36
:10128000CAF72BD0FE2F29D0660F771F881FBB1FF0
:10129000261737074807AB07B0E809F0BB0B802DCE
:1012A000BF01FF2793585F4F3AF09E3F510578F0FA
:1012B0000C94C7110C94A7115F3FE4F3983ED4F34C
:1012C000869577956795B795F7959F5FC9F7880FCE
:1012D000911D9695879597F90895E1E0660F771F20
:1012E000881FBB1F621773078407BA0720F0621BB1
:0E12F000730B840BBA0BEE1F88F7E095089580
:1012FE000FC00E94981138F00E949F1120F0952384
:10130E0011F00C94C7110C94F61111240C94A71122
:10131E000E94C80F70F3959FC1F3950F50E0551FB3
:10132E00629FF001729FBB27F00DB11D639FAA272C
:10133E00F00DB11DAA1F649F6627B00DA11D661F7B
:10134E00829F2227B00DA11D621F739FB00DA11D9C
:10135E00621F839FA00D611D221F749F3327A00D56
:10136E00611D231F849F600D211D822F762F6A2FF2
:10137E0011249F5750409AF0F1F088234AF0EE0F57
:10138E00FF1FBB1F661F771F881F91505040A9F784
:10139E009E3F510580F00C94C7110C94A7115F3F2E
:1013AE00E4F3983ED4F3869577956795B795F795C0
:1013BE00E7959F5FC1F7FE2B880F911D9695879538
:0413CE0097F90895EE
:1013D20011C00E94981138F00E949F1120F039F438
:1013E2009F3F19F426F40C94F6110EF4E095E7FBF6
:1013F2000C94C711E92F0E94C80F58F3BA1762075D
:1014020073078407950720F079F4A6F50C94A611CA
:101412000EF4E0950B2EBA2FA02D0B01B90190010D
:101422000C01CA01A0011124FF27591B99F0593F51
:1014320050F4503E68F11A16F040A22F232F342F99
:101442004427585FF3CF469537952795A795F040E7
:101452005395C9F77EF41F16BA0B620B730B840BFC
:10146200BAF09150A1F0FF0FBB1F661F771F881FB4
:10147200C2F70EC0BA0F621F731F841F48F487950C
:1014820077956795B795F7959E3F08F0B0CF9395FE
:0E149200880F08F09927EE0F9795879508951B
:1014A000CF92DF92EF92DC0190E0292F30E0220F03
:1014B000331F6901032E000CEE086E2DA6014E5F4E
:1014C0005E4F6F4F6A01E62EFA018491E7FC80813E
:1014D00081110DC02F5F3F4F032E000C440B2E5F78
:1014E0003E4F4F4FF901849147FD808124C0CD903C
:1014F000DD90EC901297F6014491E7FC4081841353
:1015000015C02F5F3F4F032E000C440B2E5F3E4F44
:101510004F4FF901949147FD90815FEFC51AD50AAD
:10152000E50ACD92DD92EC92129701C09F5F9B304D
:0E15300008F4BBCF892FEF90DF90CF90089585
:10153E0040E068ED80E690E00E94EA1140E068ED40
:10154E0081E690E00E94EA1140E068ED85E690E0C9
:10155E000E94EA1140E068ED88E790E00E94EA11EF
:10156E004CE168ED88E690E00E94EA1140E068EDFB
:10157E0089E690E00E94EA1140E068ED80E790E095
:10158E000E94EA1140E068ED8CE790E00E94EA11BB
:10159E0040E068ED82E690E00E94EA1140E068EDDE
:1015AE0083E690E00E94EA1140E068ED84E690E068
:1015BE000E94EA1140E068ED80E890E00E94EA1196
:0C15CE00E0E6F0E0858181FFFDCF08958C
:1015DA006F927F928F92EF92FF920F931F93CF9306
:1015EA00DF93CDB7DEB76197CDBFDEBFFE0131967F
:1015FA0051E1DF011D925A95E9F7A2E0B1E0A98312
:10160A00BA838B839C8377FF09C08FE490E0809331
:10161A000060909301608FEF9FEF19C03901842E0B
:10162A007C01615071096E837F839801682DA30143
:10163A00CF010E947310488559852E813F81421738
:10164A00530708F49A01F701E20FF31F108261961B
:10165A00CDBFDEBFDF91CF911F910F91FF90EF9029
:08166A008F907F906F900895AE
:101672006F927F928F92AF92BF92CF92DF92EF9250
:10168200FF920F931F93CF93DF935C013A01862E53
:10169200E901670181E0C822DD24E0FC03C02017D4
:1016A200310758F09E01682DA301C5010E94370E33
:1016B200C017D10710F0CE0118C07801EC1AFD0A4C
:1016C200E114F10449F0B50180E290E00E94CE0BF2
:1016D20081E0E81AF108F4CFCD2831F49E01682D9B
:1016E200A301C5010E94370EC801DF91CF911F915E
:1016F2000F91FF90EF90DF90CF90BF90AF908F90BF
:061702007F906F90089536
:10170800A3E8B0E0EAE8FBE00C9460105C01490152
:10171800CF57DF4F488359836A83C158D040C12CC3
:10172800D12CCF57DF4F2881C158D040CE57DF4F3B
:101738009881C258D040CD57DF4F8881C358D040D8
:10174800E22FF92F949187FD90819923E9F0740194
:10175800860120E830E0AE014F5F5F4FBE016F5752
:101768007F4FC5010E9473048C0D9D1D8C159D052E
:101778004CF48FE490E080930060909301608FEFC9
:101788009FEF03C06C01CDCFC601CD57DF4FECE012
:041798000C9491100C
:10179C000F931F93CF93DF93DB012D913C91119706
:1017AC0030FF25C017964D915C91189715962D9189
:1017BC003C9116974217530778F41296ED91FC91D1
:1017CC001397808312962D913C9113972F5F3F4F67
:1017DC0012962D933C93139717962D913C91189735
:1017EC002F5F3F4F17962D933C93189715C01D965E
:1017FC00ED91FC911E97309719F48FEF9FEF0CC071
:10180C008B01EC010995892BC1F7F8018781908533
:10181C00019687839087CE01DF91CF911F910F9115
:02182C0008951D
:10182E000E9422110E945E0C0E948E0D83E10E9486
:10183E00BB11C8E6D0E60E94E6118823E1F30E94B0
:10184E00CD11A0E0B0E088839983AA83BB8368940E
:10185E0013F8B695A795979587951694D1F78E831D
:10186E009F83BC0180E090E00E949D0C20E030E060
:10187E0048EC52E40E94F21120E030E04AE755E4D1
:10188E000E94EE116093706070937160809372602D
:10189E00909373600E947707609170607091716091
:0E18AE0080917260909173600E94530DC4CFC0
:1018BC00E2E0F0E6A2E3B0E68C91808311968C9185
:1018CC001197818312968C918283A5E0B0E642E356
:1018DC0050E681E018C0E82FF0E09F01220F331F83
:1018EC00E20FF31FEE5CFF4990819C93918111965E
:1018FC009C931197928112969C9312978F5F8730CD
:10190C0008F080E013964A175B0729F762E070E64F
:10191C0080E840E150E00E946B0E2FEF83ED90E3E6
:0E192C00215080409040E1F700C00000089577
:10193A00E89409C097FB3EF490958095709561955F
:10194A007F4F8F4F9F4F9923A9F0F92F96E9BB2715
:10195A009395F695879577956795B795F111F8CF91
:10196A00FAF4BB0F11F460FF1BC06F5F7F4F8F4FFC
:10197A009F4F16C0882311F096E911C0772321F0F2
:10198A009EE8872F762F05C0662371F096E8862F8A
:10199A0070E060E02AF09A95660F771F881FDAF7E1
:0A19AA00880F9695879597F9089528
:1019B4006F927F928F92CF92DF92EF92FF920F936A
:1019C4001F93CF93DF936C01FB013901842EC8016F
:1019D400C281D38104811581E080F180232B242BE3
:1019E40031F42CE3622E21E0722E20E0822E009747
:1019F40021F4882DB3010E94A310D7FD04C0C81799
:101A0400D90708F4CE019C01682DA301C6010E94E8
:101A1400390BDF91CF911F910F91FF90EF90DF90E1
:0A1A2400CF908F907F906F9008958F
:101A2E00DC012D913D914C911297F901849147FD66
:101A3E0080818A3221F080E090E07AE011C02F5F41
:101A4E003F4F4F4F2D933D934C93DB01ED91FC9106
:101A5E001197CF0102968D939C9380819181089569
:101A6E002D913D914C911297F901549147FD508162
:101A7E0050535A3080F4789FF001799FF00D112465
:101A8E00CF01850F911D2F5F3F4F4F4F2D933D93EC
:081A9E004C931297E5CF089567
:101AA6000F931F93CF93DF93CDB7DEB7E297CDBFEA
:101AB600DEBF9F938F937F936F9388E191E0A0E0C1
:101AC600AF939F938F938E010F5F1F4F1F930F93BB
:101AD6000E94E1108EE191E0A0E0AF939F938F9377
:101AE6000E944110C801A0E8AF939F930F930E94F4
:101AF600411089E291E0A0E0AF939F938F930E94FB
:101B06004110CDBFDEBFE296CDBFDEBFDF91CF91E4
:061B16001F910F910895DC
:101B1C001F93CF93DF93C2E0D0E618821FE01983A6
:101B2C001A82688179818A8140E150E00E947E0F9F
:101B3C002FEF89E698E1215080409040E1F700C0FA
:101B4C000000188319821A82688179818A8140E1A8
:101B5C0050E00E947E0F2FEF89E698E121508040E3
:101B6C009040E1F700C00000188319831A83688144
:101B7C0079818A8140E150E00E947E0FDF91CF9104
:041B8C001F91089508
:101B90001F920F920FB60F9211242F933F934F93E2
:101BA0005F936F937F938F939F93AF93BF93EF93C5
:101BB000FF937D9B05C0E0918260F0918360099561
:101BC0007C9B05C0E0918060F091816009957F9BCE
:101BD00005C0E0917C60F0917D6009958FEF8FB931
:101BE000FF91EF91BF91AF919F918F917F916F91F5
:101BF0005F914F913F912F910F900FBE0F901F90CB
:021C0000189535
:101C0200CF93DF9300D00F92CDB7DEB769837A838B
:101C12008B83DE0111969E012C5F3F4F1EC08C917B
:101C220088234CF46F9A83E08A95F1F700C06F988D
:101C320000C000C009C06F9A00C000C000006F98C9
:101C420082E08A95F1F700008081880F80839150AD
:101C520031F71196A217B30719F098E0FD01DFCF13
:0C1C62002396CDBFDEBFDF91CF91089527
:101C6E006F927F928F92CF92DF92EF920F931F938C
:101C7E00CF93DF938C016A01E62EE9013A01862E9D
:101C8E00620E731E811C37FD8A94C614D704E804B5
:101C9E0079F0F6018491E7FC8081B801082E000CE2
:101CAE00990B0E94CE0B8FEFC81AD80AE80AEDCF17
:101CBE00CE01DF91CF911F910F91EF90DF90CF90DA
:081CCE008F907F906F90089544
:101CD6006F927F928F92CF92DF92EF9241155105CC
:101CE600E1F03B01882E6B01E82ECA01880F991F8F
:101CF600480F591F640E751E811C57FD8A94F60104
:101D06005E2D0E9476110E94010E83E0C80ED11C42
:101D1600E11CC614D704E80491F76F9887EC90E0AD
:101D26000197F1F700C00000EF90DF90CF908F9001
:061D36007F906F900895FC
:101D3C000E94D00F88F09F5798F0B92F9927B75170
:101D4C00B0F0E1F0660F771F881F991F1AF0BA9553
:101D5C00C9F714C0B13091F00E94A611B1E00895FA
:101D6C000C94A611672F782F8827B85F39F0B93FEC
:101D7C00CCF3869577956795B395D9F73EF4909506
:0E1D8C008095709561957F4F8F4F9F4F089502
:101D9A00E0E0F8E08BE09AE180879187158280EC99
:101DAA00868383E08783138614861686158681E0E8
:101DBA0092E1809388609093896082E092E18093B7
:101DCA0086609093876083E092E180938460909329
:101DDA00856010928A6010928B60E0918C60F0911D
:0C1DEA008D6087E490E68083918308956B
:101DF6001F920F920FB60F9211242F933F934F937A
:101E06005F936F937F938F939F93AF93BF93EF935C
:101E1600FF9382E080930D06E0917A60F0917B60FB
:101E2600309709F00995FF91EF91BF91AF919F917E
:101E36008F917F916F915F914F913F912F910F906D
:081E46000FBE0F901F901895CC
:101E4E001F920F920FB60F9211242F933F934F9321
:101E5E005F936F937F938F939F93AF93BF93EF9304
:101E6E00FF9381E080930D06E0917860F0917960A8
:101E7E00309709F00995FF91EF91BF91AF919F9126
:101E8E008F917F916F915F914F913F912F910F9015
:081E9E000FBE0F901F90189574
:101EA6001F920F920FB60F9211242F933F934F93C9
:101EB6005F936F937F938F939F93AF93BF93EF93AC
:101EC600FF93BB9B05C0E0917E60F0917F60099512
:101ED6008FEF87BBFF91EF91BF91AF919F918F914C
:101EE6007F916F915F914F913F912F910F900FBE10
:061EF6000F901F901895EB
:101EFC00CF92DF92EF920F931F93CF93DF93411505
:101F0C00510569F08A016B01E82EC0E0D0E08E2DFE
:101F1C00B6010E94010E21960C171D07C1F76F9890
:101F2C0087EC90E00197F1F700C00000DF91CF91B2
:0C1F3C001F910F91EF90DF90CF9008955F
:101F4800990F0008550FAA0BE0E8FEEF16161706C2
:101F5800E807F907C0F012161306E407F50798F02A
:101F6800621B730B840B950B39F40A2661F0232B43
:101F7800242B252B21F408950A2609F4A140A695BF
:081F88008FEF811D811D0895FA
:101F900057FD9058440F551F59F05F3F71F047951A
:101FA000880F97FB991F61F09F3F79F087950895FF
:101FB000121613061406551FF2CF4695F1DF08C01E
:101FC000161617061806991FF1CF8695710561053B
:041FD00008940895D4
:101FD400FA0160387105CCF0623871051CF0633881
:101FE400710599F4A081B1819D012C5F3F4F20833D
:101FF40031834D915D916D917C91FC0140835183BE
:102004006283738381E090E0089580E090E0089516
:1020140097FB10F8169400080F93083098F00850B6
:10202400232F342F452F562F672F782F892F902D4C
:10203400F4CF059497958795779567955795479528
:0C204400379527950A95AAF70F9108958B
:10205000E0E0F6E084E0818381E0828313821482F1
:1020600016861386148693E19087818715828FEFF9
:102070009FE0848B958B128A138A83E0808380E0B3
:022080000895C1
:10208200A0E0B0E0E7E4F0E10C946A109E012B5F5F
:102092003F4FF9014191519161919F01E0918C6013
:1020A200F0918D60808191810E947310E2E00C9426
:0220B2009B1081
:1020B4002F923F924F925F926F927F928F929F9254
:1020C400AF92BF92CF92DF92EF92FF920F931F9342
:1020D400CF93DF93CDB7DEB7CA1BDB0BCDBFDEBF1B
:0220E40009945D
:1020E600A2E0B0E0E9E7F0E10C9468108C012983E6
:1020F6003A839E012F5F3F4F0E94840BF801208197
:1021060024FF02C08FEF9FEF2296E4E00C94991013
:102116002A88398848885F846E847D848C849B8471
:10212600AA84B984C884DF80EE80FD800C811B817F
:10213600AA81B981CE0FD11DCDBFDEBFED010895B5
:10214600CF92DF92EF926B01E82EA82FCB01FC0114
:102156002491A7FD2081222319F00196A11DF7CF16
:0C2166008C199D09EF90DF90CF90089538
:1021720097FB072E16F4009407D077FD09D00E9432
:10218200CD1007FC05D03EF4909581959F4F0895A0
:08219200709561957F4F0895DF
:10219A00AA1BBB1B51E107C0AA1FBB1FA617B70783
:1021AA0010F0A61BB70B881F991F5A95A9F780959F
:0821BA009095BC01CD010895D0
:1021C200A0E0B0E0E7EEF0E10C946A109E01265F19
:1021D2003F4F4F81588569858D819E810E945311A1
:0621E200E2E00C949B10EA
:1021E800092E0394000C11F4882352F0BB0F40F41D
:1021F800BF2B11F460FF04C06F5F7F4F8F4F9F4F5D
:02220800089537
:10220A00A29FB001B39FC001A39F700D811D11242D
:0E221A00911DB29F700D811D1124911D08951C
:102228009A01462FDC01F901549147FD50815D93D5
:0C2238002F5F3F4F4F4F5111F6CF08951C
:102244000E949E080E9428100E949F0A0E94CD0EA0
:0A2254000E9491110E942F110895BD
:10225E0040E068ED80E191E00E94EA11E0E1F1E0FA
:08226E001282138280E0089542
:10227600CF93C82F0E94C1118823E1F3C0930208AF
:0822860080E090E0CF91089583
:10228E00E2E0F0E682E390E610821282118233964B
:08229E00E817F907C9F70895DC
:1022A6000F931F9389019A01462F6FEF7FE70E94D4
:0822B600ED0A1F910F9108953C
:1022BE000024A7FD00942A0F301D401D501D601DE7
:0822CE00701D801D901D089594
:1022D600EC010E9405120E940412CE010E94061211
:0622E600CE010E94FB1175
:1022EC0057FD04C065917591859108956191719127
:0422FC00819108952F
:10230000FC01480F591FE417F50711F06193FBCF4B
:0223100008952E
:102312009C01215431092A31310508F48062089563
:0E232200E0EBF0E014821082128280E0089559
:0E23300000240A9416161706180609060895CA
:0E233E0000240A9412161306140605060895CC
:0E234C00E894BB2766277727CB0197F9089501
:0E235A005058BB27AA270E94E9090C94F410E2
:0E2368000E949E0E6894B1110C94A711089566
:0C237600E0E0F6E0808781E082870895B7
:0C2382008091040885FB882780F90895ED
:0C238E0097F99F6780E870E060E0089518
:0A239A00809110069091110608953D
:0A23A4008F938FEF83B98F91189586
:0A23AE008F938FEF8BB98F91189574
:0A23B8000E94A40F08F481E00895CC
:0A23C2000E94A40F08F48FEF0895A5
:0823CC0080910D068170089557
:0823D400FC0164BF4083089581
:0823DC000E9410090C94F4109A
:0823E4000E947F090C94F41023
:0623EC009FEF80EC089554
:0423F2000C94000047
:0423F6000E947F00C2
:0223FA00089544
:0223FC00089542
:0223FE00089540
:0224000008953D
:0224020008953B
:02240400089539
:02240600089537
:02240800089535
:02240A00089533
:02240C00089531
:10240E0000000F000F000F00000F0F00000F0F0F46
:05241E00000F0F0F0F7D
:10242300030000000000000000000000003B11005A
:0124330000A8
:1024340003020701060B00050A0F04090E080D0C20
:022444008E60A8
:02000004008278
:090000000000000000D00800001F
:00000001FF
