:100000000C945D000C94A8110C94A8110C94A811E8
:100010000C94A8110C94A8110C94A8110C94A8117C
:100020000C9465110C94A8110C94A8110C94A811AF
:100030000C94A8110C94A8110C94A8110C94A8115C
:100040000C94A8110C94A8110C94A8110C94A8114C
:100050000C94A8110C94A8110C94A8110C94A8113C
:100060000C94780B0C94A8110C94410D0C94150D64
:100070000C94A8110C946A110C94A8110C94A8115A
:100080000C94A8110C94A8110C946D0D0C94A8114B
:1000900060006032806032608D00236C608D6095FE
:1000A00080609560A20023C760A260BE8060BE60D1
:1000B000C00023D460C060C58000809101108F7C97
:1000C000806080688093011011241FBECFEFCDBFE8
:1000D000DFE7DEBFE0E9F0E040E017C0B591A591B1
:1000E00035912591059107FD0CC095918591EF0102
:1000F000F92FE82F05900D92A217B307D9F7FE014B
:1001000004C01D92A217B307E1F7E93BF40731F7EA
:0C0110000E94BB0A0C944B10F894FFCF27
:10011C0025302E3266000A537472656E6774683A25
:04012C000025250085
:10013000A6E2B0E0EEE9F0E00C94090F8E8F9F8FFD
:10014000688F798F122FFB010190F081E02DE987F4
:10015000FA87FB01C280D380248135812B8B3C8BB5
:100160008085918588A399A326803780FA018080B5
:100170009180A280B38020E030E0A901C501B401E4
:100180000E946F1187FF06C0B7FAB094B7F8B09419
:100190008DE204C0598552FFB8C28BE2F101808321
:1001A0002B893C89215031092F83388741E050E069
:1001B000498B5A8B06C08B899C898F839887198AB3
:1001C0001A8AD501C401BF770097E0E8AE07EFE7D0
:1001D000BE0769F40E94EE0F18F46DE570E602C0E8
:1001E00061E670E60E94A91081E690E67EC2019762
:1001F000A048BF4768F00E94EE0F18F465E670E66D
:1002000002C069E670E60E94A91089E690E66DC218
:1002100020E030E0A901C501B4010E946F111B82EA
:100220001C82882309F45AC020E82D833FE33E83D3
:1002300019821A820E9456100E949511F62E072FDD
:100240008D879B87A50194010E94741118166CF08C
:1002500049815A814F5F5F4F49835A83FB820C83E8
:100260005D855D838B858E83E5CF1B861C860E9412
:100270005611C501B4010E946F1187FF35C0E98195
:10028000FA81E43DFE4FF4F44B855C85452BD1F4B7
:1002900020E030E040E85AE5C501B4010E94951124
:1002A0004B015C0120E030E040E85AE56B817C8145
:1002B0008D819E810E9495110E945B1181E090E0EA
:1002C0008B879C870E9456100E9491110E945B119F
:1002D000E981FA813197E983FA83C9CFF0E8FD8398
:1002E0002FE32E8319821A82412F110F550B4AA337
:1002F0005BA3CA010E94A1108B8FD7FC03C0CDA2C3
:10030000DEA204C086E090E08DA39EA39B8D97366D
:1003100041F4CD2809F0FEC1E1E0F0E0EDA3FEA339
:10032000F9C18B8D8D8B06C029813A8137FF05C2BB
:1003300096E69D8BEDA1FEA13196EDA3FEA3FD896E
:10034000F636B9F429813A8137FF08C01B821C8236
:1003500030E83D834FE34E8319821A825B8D573616
:1003600041F08DA19EA1E981FA818E0F9F1F8DA37F
:100370009EA3FB81FB872C812D873D813E8B4E8187
:100380004A8F750164011C8E1D8EEC8DFD8D2DA193
:100390003EA1E217F307B9F12B853D854E895A8DB1
:1003A000C701B6010E9491110E942A072B013C014E
:1003B0000E94F0106CA38701760117FB109517F9C6
:1003C00010952B853D854E895A8DC301B2010E943F
:1003D00092066B017C01F7FAF094F7F8F09420E0B4
:1003E00030E040E251E46B857D858E899A8D0E94D4
:1003F00091116B877D878E8B9A8F8C8D9D8D019649
:100400008C8F9D8FC2CF20E030E040EA50E46B85B6
:100410007D858E899A8D0E9495112B013C019B014F
:10042000AC01C701B6010E946F1187FD0BC0A3018B
:100430009201C701B6010E946F11811106C03CA153
:1004400030FD03C0412C512C3201A3019201C501A2
:10045000B4010E94EA104B015C014D89453619F048
:1004600069807A8002C0612C712C23018DA19EA12C
:10047000481A590AC988DA8800E010E01B861C86F1
:10048000E985FA85E071FF27EE8BFF8B6414750414
:1004900031F4EB85FC85EF2B09F486C091C0CC8E3E
:1004A000DD8EE88DF98D808591850597C816D90672
:1004B00080F70E945611C501B4010E9491110E945B
:1004C0002A076D877E878F87988B0E94F010CB015B
:1004D0002E893F89232B69F4892B59F43B8D3736BC
:1004E00041F477FE06C0A8014F5F5F4F4C8F5D8FD0
:1004F0003BC08B859C85892B89F477FE0FC09FEFCD
:10050000C91AD90AEC8DFD8DE20DF31D2EE2208370
:100510000E94E21081E090E08B879C87F101EC0D56
:10052000FD1D0C8F1D8F4C8D5D8D452B49F090E38B
:1005300091932C8D3D8D215031092C8F3D8FF3CF20
:10054000C8018C0D9D1D2F813885201B310B6C013E
:100550005FEFC51AD50AF101E80FF91F605D6083EE
:10056000C90101978F8398878501740117FB109546
:1005700017F910950E9456116D857E858F85988993
:100580000E9492064B015C01B7FAB094B7F8B094A0
:100590000E9456100E9491110E945B1191E0691A0D
:1005A00071080C8D1D8D72CFF985F4FF09C0F10122
:1005B000EC0DFD1D8EE2808396012F5F3F4F690198
:1005C000A1014C0D5D1D4B875C87FA011082FD89EE
:1005D000F53609F05DC0E8A1F9A1E20DF31D3197F0
:1005E000108229813A8137FF08C031952195310960
:1005F00029833A8301E010E002C000E010E0E8A1A6
:10060000F9A13197E20DF31D22E030E08AE0E82EF7
:10061000F12CCF018219930949815A81452B71F040
:1006200089819A81B7010E947E0F805D82936983E0
:100630007A83215031090E94E210EBCF1216130683
:100640007CF3FC013197E20DF31D012B11F42BE239
:1006500001C02DE220830297B101680F791F2AA102
:100660003BA1215431092A31310510F025E601C0A2
:1006700025E4FB0120832F813885225031092F8307
:100680003887C816D90624F48B859C850E94A9104A
:10069000398531FF29C030FD27C04F815885141698
:1006A000150614F5C1010E94D30F820D931D9C0104
:1006B0002219330949895A89241735074CF0FC015E
:1006C0002081EF81F885E80FF91F20830197EFCF94
:1006D0004F81588560E370E089899A89820D931D66
:1006E0000E9468101B8A1C8AC1010E94D30F0985D1
:1006F0001A852B893C89AC01B1018E8D9F8D0E949A
:10070000D709A696E2E10C94220F598553FF53CDE9
:1007100080E244CD89819A818C3F9F4F5CF0298192
:100720003A814DA15EA1241735070CF4FDCD55E6A5
:100730005D8B1FCEF5E6FD8B1CCE36E63D8B19CECC
:10074000AAE9B0E0E6EAF3E00C94090F6C017A0143
:10075000C756DF4F68837983C959D040A12CB12C8B
:1007600066246A94762C90E8492E512C25E2222E9C
:10077000C756DF4F68817981C959D040FB0180811C
:10078000882309F428C2CF570E947D11C1580E94C6
:100790007910CB570E947D11C558D04081E090E080
:1007A0008C0F9D1FC957DF4F88839983C758D0404E
:1007B000C757DF4F48825982C958D040FB0100E03B
:1007C00010E08191811112C001151105A1F0A8015D
:1007D000C6010E94D20E0E94B810800F911FC7560A
:1007E000DF4F88839983C959D04005C0853261F3B2
:1007F0000F5F1F4FE6CF0E94A211853209F0D9C1C9
:100800004F019FEF891A990A0E94BF100E94B810E9
:10081000DC012C912B3221F40E94CD10246007C002
:100820002C329CF02D32E9F40E94CD102160CF577C
:10083000DF4F28833983C158D0400196C756DF4F18
:1008400088839983C959D040E1CF203221F40E9496
:10085000CD102860ECCF233251F40E94CD102061DE
:10086000E6CF203321F40E94CD102260E0CF2A325F
:1008700029F50196C756DF4F88839983C959D0401F
:10088000D701ED91FC911197CF0102968D939C9326
:10089000808191810E94DB1097FF1DC00E94CD10C6
:1008A000B1E02B27CF57DF4F28833983C158D04081
:1008B0009195819591090E94DB100DC00E94B10BAA
:1008C0000E94DB100E941311C0970A9720F4319602
:1008D0000E94C610F7CFCF57DF4F88819981C1584A
:1008E000D04080FF07C08D7FCF57DF4F888399832B
:1008F000C158D0400E94A2118E3209F031C0CD57AC
:100900000E947D11C358D040CF010196C756DF4FDA
:1009100088839983C959D04021812A32A1F4329623
:10092000C756DF4FE883F983C959D040D701ED910D
:10093000FC911197CF0102968D939C9380819181B8
:100940000E94D4100DC00E94B10B0E94D4100E94CE
:100950001311C0970A9720F431960E94C610F7CF62
:10096000CE0187569F4F0E94740E382E0E9413119D
:100970000E94A1108936910509F43EC0B4F4833673
:10098000910509F4D3C044F48532910509F4E4C01B
:100990008136910529F1EBC08436910509F42CC00C
:1009A000883691050CF4B6C0E2C08037910509F491
:1009B00056C04CF48E36910509F4A1C08F369105CE
:1009C00009F437C0D4C08537910509F426C08837AB
:1009D000910509F43AC08337910509F0C8C0B2C047
:1009E0000E9419110E94940E892B09F4E0C00E9404
:1009F0004C110E949C11D8C0632D70E0970141E01A
:100A000050E00E9479110E94F105892B09F4CFC0B2
:100A10000E9447110E949911C7C00E9481100E9434
:100A2000F105892B09F4C3C00E9447110E94991156
:100A3000BBC00E9481100E94F105892B09F4B7C048
:100A40000E9447110E949911AFC00E9481100E941C
:100A5000F105892B09F4ABC00E94B50F4BC097017B
:100A600040E050E060EF70E00E9479110E94F105D3
:100A7000892B09F49CC00E949F1186E0ECE9F0E606
:100A8000DE01AD56BF4F01900D928A95E1F7C55733
:100A9000DF4F2881CB58D040C457DF4F3881CC5826
:100AA000D040C357DF4F4881CD58D040C257DF4FA9
:100AB0005881CE58D040C157DF4F6881CF58D040C1
:100AC000C057DF4F7881C059D040CF56DF4F888163
:100AD000C159D040CE56DF4F9881C259D040A0E0D6
:100AE0000E941E1031F420E030E0AE014D565F4F01
:100AF00055C028E70E9489100E949C1155C0632DA3
:100B000070E09701A501400F511F0E9479110E94CA
:100B1000290A4DC00E9419110E94940E892B09F4D4
:100B200046C00E944C110E9498003EC0B0E83B12A3
:100B30003EC00E942A108081C557DF4F8883CB5862
:100B4000D04027C0B0E83B1232C00E942A1040813A
:100B5000518120E030E022C0B0E83B1228C00E9462
:100B60009F11C557DF4F2882CB58D04012C0C557C0
:100B7000DF4F2882CB58D0400E94BF10CF570E9431
:100B80007D11C158D040CB570E947D11C5580E949D
:100B9000791021E030E0AE0145575F4FBE016F573D
:100BA0007F4FC6010E94220C800F911F03C00E943C
:100BB0009F11C8018501080F191F0A151B054CF468
:100BC0008FE490E080930060909301608FEF9FEF3F
:100BD00003C05801CDCDC501C656DF4FE2E10C94EC
:020BE000220FE2
:100BE2000F931F93CF93DF93FC01D90168387105EE
:100BF20031F194F46138710589F12CF46038710592
:100C020009F46AC087C06238710509F44DC06438BE
:100C1200710509F461C07EC0603A710509F441C0F2
:100C22002CF46039710509F43FC074C0603C710551
:100C320009F463C0603F710509F45FC06BC00E9494
:100C42001F11452B39F09881892F880F880B9083CB
:100C520081834DC088818083118255C00E945111C9
:100C620004968D939C93452B99F088819981AA8152
:100C7200BB81AC01BD01770F440B542FBA018083B5
:100C82009183A283B383448345834683478321C0F0
:100C9200088119812A813B81008311832283338356
:100CA20034C00E941F111CC00E94511108968D93DE
:100CB2009C93788169815A814B813C812D819E81EF
:100CC2008F81708361835283438334832583968328
:100CD200878381E090E020C00E941F11452B79F0AC
:100CE20099812881892F880F880B208391838283A1
:100CF2008383848385838683EBCF0E941F110881BF
:100D02001981008311831282138214821582168242
:100D12001782DFCF80E090E0DF91CF911F910F919A
:020D2200089532
:100D2400A5E1B0E0E8E9F6E00C94090F47015801A9
:100D34000E9495112B013C01A80197010E94EA1021
:100D4400162FC72ED82EF92E862F9C2DAD2DBF2DF4
:100D540089839A83AB83BC83AA81FB81EC81ED8078
:100D64003E802F8008850D8B5E2F5F71212F3A2FD7
:100D74004F2F60E070E080E090E0211531054105DF
:100D840000E15007610571058105910509F05AC01C
:100D94005E2F6E2D732D822D9D8904E30E94B60E65
:100DA4002D873E874F87588B698B7A8B8B8B9C8BD7
:100DB4008D859E8597708F3F974009F443C0A301AA
:100DC40092010E943D110E94E9109B01AC01C501F2
:100DD400B4010E946F118823A9F149865A866B8653
:100DE4007C8629853A854B855C85C501B4010E94C2
:100DF400EA10B62E872E982EA92E262F372F482F8D
:100E0400592F0E943D110E946F11811118C02B2D82
:100E14008B2D982DA92DBA2D89839A83AB83BC83FE
:100E24003A814B815C816E2D732D822D9D89A1E0C9
:100E34000E941210122FC32ED42EF52E03C01B2D88
:100E44006401FA2C0E943D116596E2E10C94220F94
:100E54004F925F926F927F928F929F92AF92BF92C6
:100E6400CF92DF92EF92FF92CF93DF93CDB7DEB7AD
:100E74002897CDBFDEBF6B017C01DC01CB0147E1CC
:100E8400B695A795979587954A95D1F799278F5742
:100E94009109873191057CF597FD32C088248A94A5
:100EA400982C3FE7A32EB12C04C0B594A794979433
:100EB40087948A95D2F7D501C4018C219D21AE2156
:100EC400BF21892B8A2B8B2BB1F00E94B1100E9479
:100ED400EA106D837E838F839887F7FE04C0C80C65
:100EE400D91CEA1CFB1C80949094A094B094C82054
:100EF400D920EA20FB205C2D4D2D3E2D2F2D1DC029
:100F04000E94B1100E94EA1069837A838B839C83C8
:100F1400F7FE0FC0D701C601880F991FAA1FBB1F78
:100F2400892B8A2B8B2B39F350E040E030E82FEBF0
:100F340004C050E040E030E020E0652F742F832FA0
:100F4400922F2896CDBFDEBFDF91CF91FF90EF9017
:100F5400DF90CF90BF90AF909F908F907F906F90D5
:060F64005F904F9008951C
:100F6A002091936030919460C90144E096958795E9
:100F7A004A95E1F78093C4604FE0429FC001439FC6
:100F8A00900D112460EA7FE00E946A0F6093C360AB
:100F9A000E9440109091C3609F30B1F02091C460CC
:100FAA0080E0E82FF0E0E358FF49E0810E945F10FB
:100FBA001082118222838F5F981798F760E170E0A0
:100FCA0082E090E60C940E0EA6EAB0E68D919D9111
:100FDA000D90BC91A02D0196A11DB11D8F309105D8
:100FEA00A105B10538F4E6EAF0E680839183A2838D
:100FFA00B38312C01092A6601092A7601092A860E4
:10100A001092A9608091C2608F5F873018F4809334
:10101A00C26002C01092C260E091C260F0E0CF01EB
:10102A00880F991FE80FF91FE85BFF49208191811A
:10103A008281ADE7B0E6ED910E945F102083918333
:0C104A00828330E6AD38B307B1F7B8CFB1
:10105600CF93DF9380E094E0FC011082C0E4D4E0FB
:101066001882A0E6B4E020E92C9340EA54E0FA01A5
:101076001082FC0114821C8220E114962C93149792
:10108600FA011482FC01108A118A128A138A148AC0
:10109600158A168A178A188A198A1A8A1B8A1C8A36
:1010A6001D8A1E8A1F8A50961C92509751961C9232
:1010B600519752961C92529753961C925397549658
:1010C6001C92549755961C92559756961C92569775
:1010D60057961C92FA01108A118A128A84E0838B31
:1010E600148A158A168A178AE0EEF5E011821082B4
:1010F6001582178210861186168283E082838EEA15
:1011060091E18093B4609093B5608FEA91E180930A
:10111600B2609093B3608DEA91E18093B060909352
:10112600B1608CEA91E18093AE609093AF60DF91FD
:04113600CF910895B8
:10113A0010C00E94FE1058F00E94F71040F029F4E7
:10114A005F3F29F00C94371151110C9406110C943D
:10115A00A5110E94520E68F39923B1F3552391F316
:10116A00951B550BBB27AA2762177307840738F00C
:10117A009F5F5F4F220F331F441FAA1FA9F333D06B
:10118A000E2E3AF0E0E830D091505040E695001C1F
:10119A00CAF729D0FE2F27D0660F771F881FBB1FDB
:1011AA00261737074807AB07B0E809F0BB0B802DB5
:1011BA00BF01FF2793585F4F3AF09E3F510568F0F1
:1011CA000C9437110C9406115F3FE4F3983ED4F364
:1011DA0086950E9442119F5FD9F7880F911D9695B7
:1011EA00879597F90895E1E0660F771F881FBB1F5F
:1011FA00621773078407BA0720F0621B730B840B0C
:0A120A00BA0BEE1F88F7E095089577
:101214000FC00E94F71038F00E94FE1020F09523B2
:1012240011F00C9437110C94A51111240C9406118F
:101234000E94520E70F3959FC1F3950F50E0551F15
:10124400629FF001729FBB27F00DB11D639FAA2717
:10125400F00DB11DAA1F649F6627B00DA11D661F66
:10126400829F2227B00DA11D621F739FB00DA11D87
:10127400621F839FA00D611D221F749F3327A00D41
:10128400611D231F849F600D211D822F762F6A2FDD
:1012940011249F5750409AF0E1F088234AF0EE0F52
:1012A400FF1FBB1F661F771F881F91505040A9F76F
:1012B4009E3F510570F00C9437110C9406115F3F5A
:1012C400E4F3983ED4F386950E944211E7959F5F1C
:1012D400D1F7FE2B880F911D9695879597F9089560
:1012E40011C00E94F71038F00E94FE1020F039F46B
:1012F4009F3F19F426F40C94A5110EF4E095E7FB36
:101304000C943711E92F0E94520E58F3BA17620752
:1013140073078407950720F079F4A6F50C9405115A
:101324000EF4E0950B2EBA2FA02D0B01B9019001FC
:101334000C01CA01A0011124FF27591B99F0593F40
:1013440050F4503E58F11A16F040A22F232F342F98
:101354004427585FF3CF469537952795A795F040D6
:101364005395C9F77EF41F16BA0B620B730B840BEB
:10137400AAF0915091F0FF0FBB1F661F771F881FC3
:10138400C2F70CC0BA0F621F731F841F38F487950D
:101394000E9442119E3F08F0B2CF9395880F08F047
:0A13A4009927EE0F9795879508959D
:1013AE00A0E1B0E0EDEDF9E00C940B0F5C013B0118
:1013BE006A017901280181E04822552400FD14C0FC
:1013CE00421753078CF487010C191D094801A80117
:1013DE000131110510F040E150E060E270E0CE0105
:1013EE0001960E9468100AC0A601B301C5010E94B1
:1013FE00D20ECE14DF043CF3C60120C0003111051D
:10140E0058F040E150E0BE016F5F7F4FC5010E9472
:10141E00D20E00511109F2CFA4014F705527BE0113
:10142E006F5F7F4FC5010E94D20E4114510429F403
:10143E00A601B301C5010E94D20EC7016096E0E17C
:04144E000C94240FC7
:10145200CF93DF93DC01F9016438710551F164F433
:1014620061387105D9F06238710509F426C0603817
:10147200710509F031C01DC060397105F1F03CF40D
:101482006838710509F028C00E94811122C0603AB3
:10149200710579F0603C710561F01EC00E94351043
:1014A200052E000C660B770B408351836283738396
:1014B20010C00E94811151830CC00E94811151837E
:1014C200852F880F880B8283838384838583868319
:1014D200878381E090E002C080E090E0DF91CF91CD
:0214E20008956B
:1014E4000F931F93CF93DF93DB012D913C911197C1
:1014F40030FF25C016964D915C91179714962D9147
:101504003C9115974217530778F41296ED91FC918C
:101514001397808312962D913C9113972F5F3F4F21
:1015240012962D933C93139716962D913C911797F1
:101534002F5F3F4F16962D933C93179715C01C961B
:10154400ED91FC911D97309719F48FEF9FEF0CC02C
:101554008B01EC010995892BC1F7F80186819781EC
:10156400019686839783CE01DF91CF911F910F91CE
:021574000895D8
:101576000E94FA0F0E94B80C0E94880C83E10E9418
:101586002511CDE8D0E60E9485118823E1F30E945B
:101596006011A0E0B0E088839983AA83BB8324E02E
:1015A600B695A795979587952A95D1F78E839F83AC
:1015B600BC0180E090E00E94EA0B20E030E048ECBD
:1015C60052E40E94951120E030E04AE755E40E947B
:1015D6009111E2EAF0E660837183828393830E942D
:1015E600B507A2EAB0E66D917D918D919C910E941E
:0415F600560CC9CFF7
:1015FA0060E080E690E00E948D1161E081E690E073
:10160A000E948D1160E085E690E00E948D1160E0F5
:10161A0088E790E00E948D1160E288E690E00E94DF
:10162A008D1160E089E690E00E948D1160E080E70C
:10163A0090E00E948D1160E08CE790E00E948D118D
:10164A0060E082E690E00E948D1160E083E690E01F
:10165A000E948D1160E084E690E00E948D1160E0A6
:10166A0080E890E00E948D118091650081FFFCCF97
:02167A000895D1
:10167C00A0E1B0E0E4E4FBE00C94150FFB01BA012F
:10168C00AE014F5F5F4F7A0140E1D7011D924A9541
:10169C00E9F742E051E049835A838B839C83F7FF3F
:1016AC0009C08FE490E080930060909301608FEF0D
:1016BC009FEF14C0A9018C013197ED83FE83C70104
:1016CC000E94520F4F8158852D813E81421753073E
:1016DC0008F49A01F801E20FF31F10826096E6E01D
:0416EC000C942E0F1D
:1016F0001F920F920FB60F9211242F933F934F9387
:101700005F936F937F938F939F93AF93BF93EF9369
:10171000FF937D9B05C0E091B460F091B5600995A1
:101720007C9B05C0E091B260F091B36009957F9B0E
:1017300005C0E091AE60F091AF6009958FEF8FB971
:10174000FF91EF91BF91AF919F918F917F916F9199
:101750005F914F913F912F910F900FBE0F901F906F
:021760001895DA
:10176200AC01FA0190814F5F5F4F9032D1F3292F84
:10177200092E000C330B295031092530310588F32D
:101782009B3209F540E050E0319602C040E050E063
:1017920080E090E06AE02191022E000C330B20538E
:1017A20031092A30310548F4689FD001699FB00D94
:1017B2001124CD01821B930BEECF452B49F4919559
:1017C2008195910908959D3209F741E050E0DCCFFF
:0217D200089578
:1017D400E89404C097FB16F40E9471109923A9F0B1
:1017E400F92F96E9BB279395F69587957795679595
:1017F400B795F111F8CFFAF4BB0F11F460FF1BC0D9
:101804006F5F7F4F8F4F9F4F16C0882311F096E96B
:1018140011C0772321F09EE8872F762F05C0662319
:1018240071F096E8862F70E060E02AF09A95660FD2
:10183400771F881FDAF7880F9695879597F908958B
:10184400A7E0B0E0E8E2FCE00C940F0F5C017A0141
:10185400C90127E0E5E9F0E6DE01119601900D9259
:101864002A95E1F7FB01C280D380848095800081B2
:101874001181452B21F49E012F5F3F4F7901009781
:1018840019F4C7010E94D30FD7FC04C0C816D906A7
:1018940008F4C6019401AC01B701C5010E94D7093F
:0818A4002796ECE00C94280FDC
:1018AC000F931F93CF93DF93CDB7DEB7E297CDBFE6
:1018BC00DEBF9F938F937F936F938CE191E89F93FF
:1018CC008F938E010F5F1F4F1F930F930E94920FE8
:1018DC0082E291E89F938F930E943A0F1F930F938C
:1018EC000E943A0F8DE291E89F938F930E943A0FDA
:1018FC00CDBFDEBFE296CDBFDEBFDF91CF911F9192
:04190C000F9108959A
:101910001F93CF93DF93C2E0D0E618821FE01983B4
:101920001A820E9431110E94300E2FE382E49FE060
:10193000215080409040E1F700C0000018831982D8
:101940001A820E9431110E94300E2FE382E49FE040
:10195000215080409040E1F700C0000018831983B7
:101960001A830E943111DF91CF911F910C94300E98
:10197000A2E0B0E680E0E82FF0E09F01220F331FE5
:10198000E20FF31FE85BFF4990819C9391811196D0
:101990009C931197928112969C9312978F5F873038
:1019A00008F080E0139620E6A233B20721F760E149
:1019B00070E082E090E60E940E0E8FE794E82EE140
:0E19C000815090402040E1F700C000000895E3
:1019CE00E0E0F8E087E490E180879187158280EC73
:1019DE00868383E08783138614861686158682EBAC
:1019EE0091E18093BA609093BB6081EB91E180931B
:1019FE00B8609093B96080EB91E18093B66090935C
:101A0E00B7601092BC601092BD60E091BE60F09124
:0C1A1E00BF608DE690E680839183089500
:101A2A001F920F920FB60F9211242F933F934F9349
:101A3A005F936F937F938F939F93AF93BF93EF932C
:101A4A00FF9382E080930D06E091AC60F091AD6067
:101A5A00309709F00995FF91EF91BF91AF919F914E
:101A6A008F917F916F915F914F913F912F910F903D
:081A7A000FBE0F901F9018959C
:101A82001F920F920FB60F9211242F933F934F93F1
:101A92005F936F937F938F939F93AF93BF93EF93D4
:101AA200FF9381E080930D06E091AA60F091AB6014
:101AB200309709F00995FF91EF91BF91AF919F91F6
:101AC2008F917F916F915F914F913F912F910F90E5
:081AD2000FBE0F901F90189544
:101ADA001F920F920FB60F9211242F933F934F9399
:101AEA005F936F937F938F939F93AF93BF93EF937C
:101AFA00FF93BB9B05C0E091B060F091B16009957E
:101B0A008FEF87BBFF91EF91BF91AF919F918F911B
:101B1A007F916F915F914F913F912F910F900FBEDF
:061B2A000F901F901895BA
:101B30000E945A0E88F09F5798F0B92F9927B751F5
:101B4000B0F0E1F0660F771F881F991F1AF0BA9561
:101B5000C9F714C0B13091F00E940511B1E00895A9
:101B60000C940511672F782F8827B85F39F0B93F9B
:101B7000CCF3869577956795B395D9F716F40E94BF
:041B80007110089543
:101B8400CF93DF9300D00F92CDB7DEB769837A830A
:101B94008B83FE01319623E098E080816F9A87FF62
:101BA40005C032E03A95F1F76F9804C000C0000018
:101BB4006F9800C0880F8083915079F72150319637
:101BC4002111EACF2396CDBFDEBFDF91CF910895D7
:101BD400990F0008550FAA0BE0E8FEEF161617063A
:101BE400E807F907C0F012161306E407F50798F0A2
:101BF400621B730B840B950B39F40A2661F0232BBB
:101C0400242B252B21F408950A2609F4A140A69536
:081C14008FEF811D811D089571
:101C1C00EF92FF920F931F93CF93DF937B018C0175
:101C2C00C0E0D0E0CE15DF0549F0F801619171916B
:101C3C0081918F010E94C20D2196F4CF6F98F6EA24
:101C4C00FA95F1F700C0DF91CF911F910F91FF90A2
:041C5C00EF90089568
:101C6000CF92DF92EF920F931F93CF93DF936B018D
:101C7000E82E8A01C0E0D0E0C017D10731F08E2DE8
:101C8000B6010E94C20D2196F7CF6F9886EA8A9519
:101C9000F1F700C0DF91CF911F910F91EF90DF908E
:041CA000CF90089544
:101CA40057FD9058440F551F59F05F3F71F0479509
:101CB400880F97FB991F61F09F3F79F087950895EE
:101CC400121613061406551FF2CF4695F1DF08C00D
:101CD400161617061806991FF1CF8695710561052A
:041CE40008940895C3
:101CE800CF93DF93EC0190E0E92FF0E0EE0FFF1FB8
:101CF800EE5CFF498081811102C081810EC0A881FC
:101D0800B9812C91821305C091811196A883B9835A
:101D180001C09F5F9B3040F3892FDF91CF910895D9
:101D2800FA0160387105CCF0623871051CF063382F
:101D3800710599F4A081B1819D012C5F3F4F2083EB
:101D480031834D915D916D917C91FC01408351836C
:101D58006283738381E090E0089580E090E00895C5
:101D680097FB10F8169400080F93083098F0085065
:101D7800232F342F452F562F672F782F892F902DFB
:101D8800F4CF0594979587957795679557954795D7
:0C1D9800379527950A95AAF70F9108953A
:101DA400A0E0B0E0E8EDFEE00C94130F6C01EB0151
:101DB4008A017B01E40EF51ECE15DF0541F0899101
:101DC400B601082E000C990B0E94720AF5CFC801C7
:0A1DD400CDB7DEB7E8E00C942C0F49
:101DDE00E0E0F6E084E0818381E082831382148266
:101DEE0016861386148693E19087818784E1858316
:101DFE008FEF9FE0848B958B128A138A83E080830A
:041E0E0080E00895D3
:101E12002F923F924F925F926F927F928F929F92F8
:101E2200AF92BF92CF92DF92EF92FF920F931F93E6
:101E3200CF93DF93CDB7DEB7CA1BDB0BCDBFDEBFBF
:021E4200099401
:101E44002A88398848885F846E847D848C849B8446
:101E5400AA84B984C884DF80EE80FD800C811B8154
:101E6400AA81B981CE0FD11DCDBFDEBFED0108958A
:101E7400A0E0B0E0E0E4FFE00C94190FAE014B5F8A
:101E84005F4FFA0161917191AF01E091BE60F091F1
:101E9400BF60808191810E94520FE2E00C94320F66
:101EA400A2E0B0E0E8E5FFE00C94170F8C01498351
:101EB4005A83AE014F5F5F4F0E94A003F801208157
:101EC40024FF02C08FEF9FEF2296E4E00C94300FC2
:101ED400AA1BBB1B51E107C0AA1FBB1FA617B7074C
:101EE40010F0A61BB70B881F991F5A95A9F7809568
:081EF4009095BC01CD01089599
:101EFC0097FB072E16F4009407D077FD09D00E94AB
:101F0C006A0F07FC05D03EF4909581959F4F08957C
:081F1C00709561957F4F089557
:101F2400A0E0B0E0E8E9FFE00C94190FAE01475FD0
:101F34005F4F6F8178858D819E810E940C11E2E054
:041F44000C94320FB8
:101F4800092E0394000C11F4882352F0BB0F40F4BF
:101F5800BF2B11F460FF04C06F5F7F4F8F4F9F4FFF
:021F68000895DA
:101F6A00C756DF4FE881F981C959D040CF010196A0
:101F7A00C756DF4F88839983C959D0402081089575
:101F8A00C756DF4F88819981C959D0400196C756F3
:0C1F9A00DF4F88839983C959D040089517
:101FA600FC01AF014F5F5F4F2081222311F0FA0140
:0C1FB600F8CF9F01281B390BC9010895CA
:101FC20040E068ED80E191E00E948911E0E1F1E0FA
:0A1FD20012821382789480E00895D3
:101FDC00212F110F330B2154310989899A89820DD4
:081FEC00931D2A31310508950F
:101FF4000E942B080E94EF0E0E94FD0A0E94E70C2B
:082004000E9499100C94E10FF9
:10200C00CF93C82F0E942B118823E1F3C0930208B1
:08201C0080E090E0CF910895EF
:102024000024A7FD00942A0F301D401D501D601D83
:08203400701D801D901D089530
:10203C000024A7FD00942A173005400550056005C3
:08204C00700580059005089560
:102054000E94C50FD701ED91FC911197CF01029613
:062064008D939C9308958A
:10206A00C081D181CE01029680839183E881F98172
:06207A00ED93FC930895B4
:10208000E2E0F0E6108212821182339680E6E233BB
:06209000F807C1F70895F6
:10209600EC010E94B4110E94B311CE010E94B51149
:0620A600CE010E94AA1108
:1020AC0020E030E040E251E46B817C818D819E81A7
:0220BC00089585
:1020BE00F0E0AF01440F551FE40FF51FEE5FFF492F
:0220CE00089573
:1020D000FC01480F591FE417F50711F06193FBCF7E
:0220E000089561
:1020E20090958095709561957F4F8F4F9F4F089582
:1020F200D040CD57DF4F68827982C358D0400895CF
:10210200632D70E0970140E050E00E94791108953C
:10211200AE0145575F4FBE016F577F4FC60108950D
:10212200C756DF4FE881F981C959D04080810895AF
:10213200E0EBF0E0148285E08083828380E0089502
:102142009C01215431092A31310508F48062089535
:10215200FC01DB012D91BD0121932111FACF0895DC
:0E21620020E030E040E85BE7C701B6010895D9
:0E217000C756DF4F88819981C959D040089524
:0E217E00C756DF4F88829982C959D040089514
:0E218C00C756DF4FE883F983C959D040089544
:0E219A00CF57DF4F28813981C158D0400895BA
:0E21A800CD57DF4F88839983C358D0400895E8
:0E21B600CB57DF4F88839983C558D0400895DA
:0E21C4004F815885415051094F835887089527
:0E21D2005058BB27AA270E9472090C94A40F34
:0E21E0000E94980D6894B1110C940611089598
:0E21EE0000240A94161617061806090608950E
:0E21FC0000240A941216130614060506089510
:0E220A00E894BB2766277727CB0197F9089544
:0E2218009A01AB016FEF7FE70E943E0B089525
:0C2226000E949110082E000C990B0895E6
:0C223200632D70E0A7010E94791108954F
:0C223E000E94511102968D939C9308950C
:0C224A00E0E0F6E0808781E082870895E4
:0C2256008091040885FB882780F908951A
:0C226200688179818A8140E150E0089594
:0C226E0097F99F6780E870E060E0089539
:0A227A00612F7C2D8D2D9F2D0895FE
:0A22840077956795B795F7950895D3
:0A228E000E94C50F0E9489100895F8
:0A2298000E94B50F0E9489100895FE
:0A22A200CD91DC911197CE01089553
:0A22AC002B813C814D815E81089575
:0A22B6006B837C838D839E83089563
:0A22C0008091100690911106089518
:0A22CA008F938FEF83B98F91189561
:0A22D4008F938FEF8BB98F9118954F
:0A22DE000E94EA0D08F481E0089563
:0A22E8000E94EA0D08F48FEF08953C
:0822F200CE0185579F4F0895AE
:0822FA00DF4F188219820895DC
:082302000E943510408308958C
:08230A0080910D068170089519
:08231200FC0164BF4083089543
:08231A00462F68ED0C948911B7
:082322000E949D080C94A40F19
:08232A000E940A090C94A40FA3
:0623320080E090E0089538
:0623380080E090E0089532
:06233E000E94C50F089586
:062344000E9491100895B3
:06234A009FEF80EC0895F6
:042350000C940000E9
:042354000E948C0057
:022358000895E6
:02235A000895E4
:02235C000895E2
:02235E000895E0
:022360000895DE
:022362000895DC
:022364000895DA
:022366000895D8
:022368000895D6
:02236A000895D4
:10236C0068076C094C836A9074A07AC000806888F6
:06237C0000846C82008168
:1023820000000F000F000F00000F0F00000F0F0FD3
:05239200000F0F0F0F0A
:10239700494E4600696E66004E414E006E616E0002
:1023A700030000000000000000000000061000000D
:1023B70003020701060B00050A0F04090E080D0C9E
:0723C700286E756C6C290003
:0623CE00286E696C290075
:0223D400C060E7
:02000004008278
:090000000000000000D00800001F
:00000001FF
